:100000000C9473000C94E9040C94C2040C949B00AF
:100010000C949B000C949B000C949B000C949B00F4
:100020000C949B000C949B000C949B000C94EB0A8A
:100030000C949B000C949B000C949B000C949B00D4
:100040000C9478040C949B000C946B030C94450363
:100050000C949B000C949B000C949B000C949B00B4
:100060000C949B000C949B000000000024002700CF
:100070002A0000000000250028002B0004040404CE
:100080000404040402020202020203030303030342
:10009000010204081020408001020408102001021F
:1000A00004081020000000080002010000030407FB
:1000B000000000000000000072756E2D627269641D
:1000C00067650A000A000A000000000023002600FD
:1000D000290072740092740048940078C4007294ED
:1000E0000000D6156E1011241FBECFEFD8E0DEBF82
:1000F000CDBF13E0A0E0B1E0E4E0FBE302C0059077
:100100000D92AE37B107D9F726E0AEE7B3E001C0F4
:100110001D92AD3BB207E1F710E0C2E7D0E004C0AA
:100120002197FE010E94C218C137D107C9F70E946A
:100130008C100C94751D0C940000CF92DF92EF92FE
:10014000FF920F931F93CF93DF936C017A018B0182
:10015000C0E0D0E0CE15DF0589F0D8016D918D01AA
:10016000D601ED91FC910190F081E02DC601099539
:10017000892B11F47E0102C02196ECCFC701DF91DB
:10018000CF911F910F91FF90EF90DF90CF90089546
:10019000FC01538D448D252F30E0842F90E0821B8D
:1001A000930B541710F0CF96089501970895FC0112
:1001B000918D828D981761F0828DDF01A80FB11D9E
:1001C0005D968C91928D9F5F9F73928F90E00895C2
:1001D0008FEF9FEF0895FC01918D828D981731F07C
:1001E000828DE80FF11D858D90E008958FEF9FEFD0
:1001F0000895FC01918D228D892F90E0805C9F4FA6
:10020000821B91098F73992708958BEE94E00E94C9
:10021000F90021E0892B09F420E0822F0895FC01E8
:10022000848DDF01A80FB11DA35ABF4F2C91848D7F
:1002300090E001968F739927848FA689B7892C93B4
:10024000A089B1898C9180648C93938D848D98134F
:1002500006C00288F389E02D80818F7D8083089518
:10026000EF92FF920F931F93CF93DF93EC0181E006
:10027000888F9B8D8C8D981305C0E889F9898081C2
:1002800085FD24C0F62E0B8D10E00F5F1F4F0F73FE
:100290001127E02E8C8DE8120CC00FB607FCFACFA8
:1002A000E889F989808185FFF5CFCE010E940F0191
:1002B000F1CF8B8DFE01E80FF11DE35AFF4FF08265
:1002C0000B8FEA89FB898081806207C0EE89FF89F4
:1002D0006083E889F98980818064808381E090E08F
:1002E000DF91CF911F910F91FF90EF900895CF93E1
:1002F000DF93EC01888D8823C9F0EA89FB8980812E
:1003000085FD05C0A889B9898C9186FD0FC00FB6FF
:1003100007FCF5CF808185FFF2CFA889B9898C9140
:1003200085FFEDCFCE010E940F01E7CFDF91CF9186
:10033000089580E090E0892B29F00E940501811149
:100340000C94000008953FB7F89480918303909136
:100350008403A0918503B091860326B5A89B05C0B0
:100360002F3F19F00196A11DB11D3FBFBA2FA92F34
:10037000982F8827820F911DA11DB11DBC01CD01B1
:1003800042E0660F771F881F991F4A95D1F708959D
:10039000089508958BEF08958F929F92AF92BF9228
:1003A000CF92DF92EF92FF920F931F93CF93DF9341
:1003B0001F92CDB7DEB75C019B014A01DC0152966A
:1003C0008C91811105C07B018B01040F151F31C079
:1003D00080E58983C12CD12CE12CF12C8A0141E0EC
:1003E00050E0BE016F5F7F4FF501848595850E94C7
:1003F000260E22C0D5015596ED91FC915697539645
:100400008C91539791E0980F53969C93D7019D91AF
:100410007D01E80FF11D9083F5019389848998137C
:1004200008C00190F081E02D0680F781E02DC50124
:100430000995E016F106F1F6C4010F90DF91CF9116
:100440001F910F91FF90EF90DF90CF90BF90AF90F2
:100450009F908F900895CF93DF93FC012281338189
:100460002130310549F0EC0140E061E00E94420C8E
:1004700081E090E09B838A8381E0DF91CF910895B2
:10048000CF92DF92EF92FF920F931F93CF93DF9360
:10049000EC017B018A01E881F9810280F381E02D82
:1004A0000995D82E882339F1E114F104E1F0011502
:1004B0001105C9F0CFB6F8942D8D30E023503109E5
:1004C000F801808190E0821793071CF09D8D945075
:1004D0009083F801408150E0BE016E5D7F4FC701FF
:1004E0000E94C41ACFBE8FB7F894FE01E35EFE4FA0
:1004F00010821D8E8FBF8D2DDF91CF911F910F9197
:10050000FF90EF90DF90CF9008950F931F93CF93BC
:10051000DF93EC0188819981009729F02A813B8142
:100520002617370788F48B016F5F7F4F0E94F519FC
:10053000009761F0998388831B830A832C813D8116
:10054000232B11F4FC01108281E001C080E0DF91D7
:10055000CF911F910F910895EF92FF920F931F93E8
:10056000CF93DF93FC01248135816115710511F46E
:1005700080E019C041155105A9F07B01EC018A0109
:10058000020F131FB8010E948502882389F3288176
:1005900039818C819D81B701820F931F0E94CD1AF2
:1005A0001D830C8381E0DF91CF911F910F91FF900C
:1005B000EF900895EF92FF920F931F93CF93DF93E5
:1005C000EC017B018A01BA010E94850228813981F0
:1005D00081110DC02115310519F0C9010E945D1965
:1005E000198218821D821C821B821A8206C01D83FA
:1005F0000C83B701C9010E94CD1ACE01DF91CF91C2
:100600001F910F91FF90EF900895FC0111821082CD
:1006100013821282158214826115710551F0FB015B
:1006200001900020E9F73197AF01461B570B0C945E
:10063000DA020895DC01ED91FC910190F081E02D4A
:100640000994EF92FF920F931F93CF93DF938C0146
:100650007B01C0E0D0E0F701EC0FFD1F6491662341
:1006600061F0D801ED91FC910190F081E02DC8017D
:100670000995892B11F02196EECFCE01DF91CF9114
:100680001F910F91FF90EF9008951F920F920FB658
:100690000F9211242F933F934F935F936F937F9308
:1006A0008F939F93AF93BF93EF93FF938BEE94E061
:1006B0000E940F01FF91EF91BF91AF919F918F9198
:1006C0007F916F915F914F913F912F910F900FBE4E
:1006D0000F901F9018951F920F920FB60F92112432
:1006E0002F938F939F93EF93FF93E091FB04F091EF
:1006F000FC048081E0910105F091020582FD12C0A9
:100700009081809104058F5F8F732091050582177A
:1007100051F0E0910405F0E0E551FB4F958F809397
:10072000040501C08081FF91EF919F918F912F91DE
:100730000F900FBE0F901F901895833081F028F412
:10074000813099F08230A1F008958730A9F0883087
:10075000B9F08430D1F4809180008F7D03C0809106
:1007600080008F7780938000089584B58F7702C0D2
:1007700084B58F7D84BD08958091B0008F7703C0CC
:100780008091B0008F7D8093B00008951F93CF9328
:10079000DF93282F30E0F901EC55FF4F8491F901E8
:1007A000E057FF4FD491F901E458FF4FC491CC2397
:1007B000C9F0162F81110E949D03EC2FF0E0EE0F7F
:1007C000FF1FEE58FF4FA591B4918FB7F894111108
:1007D00005C09C91ED2FE095E92302C0EC91ED2B33
:1007E000EC938FBFDF91CF911F910895CF93DF934B
:1007F00090E0FC01E057FF4F2491FC01E458FF4FCB
:100800008491882361F190E0880F991FFC01E859D9
:10081000FF4FC591D491FC01EE58FF4FA591B491C3
:10082000611109C09FB7F89488812095822388833D
:10083000EC912E230BC0623061F49FB7F89438819D
:10084000822F809583238883EC912E2B2C939FBF3E
:1008500006C08FB7F894E8812E2B28838FBFDF91D5
:10086000CF9108958F929F92AF92BF92CF92DF92D5
:10087000EF92FF926B017C010E94A3014B015C018E
:10088000C114D104E104F104F1F00E94A301DC01E0
:10089000CB0188199909AA09BB09883E9340A10593
:1008A000B10570F321E0C21AD108E108F10888EE21
:1008B000880E83E0981EA11CB11CC114D104E10470
:1008C000F10419F7DDCFFF90EF90DF90CF90BF904C
:1008D000AF909F908F9008952FB7F89460917F0309
:1008E0007091800380918103909182032FBF0895BE
:1008F0001F920F920FB60F9211242F933F938F9355
:100900009F93AF93BF9380917F0390918003A091B9
:100910008103B091820330917E0323E0230F2D37B2
:1009200020F40196A11DB11D05C026E8230F0296F3
:10093000A11DB11D20937E0380937F0390938003BC
:10094000A0938103B09382038091830390918403E9
:10095000A0918503B09186030196A11DB11D8093DE
:10096000830390938403A0938503B0938603BF9180
:10097000AF919F918F913F912F910F900FBE0F904C
:100980001F9018951F920F920FB60F9211242F935C
:100990003F934F935F936F937F938F939F93AF9307
:1009A000BF93EF93FF93E0910201F091030109954A
:1009B000FF91EF91BF91AF919F918F917F916F9137
:1009C0005F914F913F912F910F900FBE0F901F900D
:1009D00018951F920F920FB60F9211242F933F93E9
:1009E0004F935F936F937F938F939F93AF93BF9337
:1009F000EF93FF93E0910001F09101010995FF91C0
:100A0000EF91BF91AF919F918F917F916F915F9186
:100A10004F913F912F910F900FBE0F901F901895FF
:100A2000CF93DF93EC018D819E81DC01ED91FC91F0
:100A30000084F185E02D09951816190654F48D816E
:100A40009E81DC01ED91FC910284F385E02D0995F6
:100A5000EACFDF91CF9108958F929F92AF92BF928C
:100A6000CF92DF92EF92FF92CF93DF93EC016B0175
:100A70000E946C044B015C01E12CF12C8D819E8164
:100A8000DC01ED91FC910284F385E02D099597FF3F
:100A90000FC00E946C04DC01CB0188199909AA09D6
:100AA000BB098C159D05AE05BF0540F38FEF9FEF89
:100AB000DF91CF91FF90EF90DF90CF90BF90AF90FC
:100AC0009F908F900895FC01238134812627022E68
:100AD0002295207F2025032E322F22952F7002266B
:100AE000269532272327220F220F220F2025348319
:100AF00023830895CF92DF92EF92FF920F931F937B
:100B00006801790100E010E020E030E00E94260E4C
:100B10001F910F91FF90EF90DF90CF900895EF928B
:100B2000FF920F931F93CF93DF9300D01F92CDB707
:100B3000DEB7FC012289211118C07C01138A8FE4E1
:100B4000898380E48B8386858A839F012C5E3F4F57
:100B500000E410E043E050E0BE016F5F7F4F84850A
:100B600095850E947A05F701828B0F900F900F9068
:100B7000DF91CF911F910F91FF90EF900895CF9348
:100B8000DF93EC010E948F058A89882331F08B89DD
:100B9000C80FD11D8C8990E002C08FEF9FEFDF91CD
:100BA000CF910895CF93DF93EC010E948F058A893E
:100BB000882359F081508A8B8B8991E0980F9B8B09
:100BC000C80FD11D8C8990E002C08FEF9FEFDF919D
:100BD000CF910895CF93DF93EC010E948F058A890E
:100BE00090E0DF91CF910895EF92FF920F931F93C2
:100BF000CF93DF9300D0CDB7DEB7FC01268521115E
:100C000015C07C01178680E7898380E28A8320896A
:100C1000318900E210E042E050E0BE016F5F7F4F9B
:100C2000848595850E947A05F70186870F900F903D
:100C3000DF91CF911F910F91FF90EF900895CF9387
:100C4000DF93EC010E94F4058E85882341F08F85A7
:100C5000E889F989E80FF11D808190E002C08FEFEB
:100C60009FEFDF91CF910895CF93DF93EC010E9426
:100C7000F4058E85882369F081508E87E889F9898B
:100C80008F8591E0980F9F87E80FF11D808190E09C
:100C900002C08FEF9FEFDF91CF910895CF93DF9345
:100CA000EC010E94F4058E8590E0DF91CF910895CC
:100CB0000F931F9300E010E020E030E00E947A05DF
:100CC0001F910F9108950F931F93CF93DF9300D03F
:100CD000CDB7DEB78C01FC018189882369F087E7F5
:100CE000898386858A8342E050E0BE016F5F7F4F33
:100CF000848595850E945806F801118A0F900F90FF
:100D0000DF91CF911F910F910895CF93DF9300D082
:100D10001F92CDB7DEB729E42983FC0126852A83FB
:100D20006B8343E050E0BE016F5F7F4F8485958504
:100D30000E94580681E090E00F900F900F90DF9195
:100D4000CF910895CF93DF93FC01228921110BC02D
:100D5000EC01438950E065897689848595850E94F8
:100D6000580681E08B8BDF91CF910895CF93DF936D
:100D700000D0CDB7DEB7DC0152968C915297882314
:100D800079F080E589836A8342E050E0BE016F5FBD
:100D90007F4F1C968D919C911D970E9458061FC0F5
:100DA0005596ED91FC91569753968C91539791E0FF
:100DB000980F53969C935397E80FF11D60835396B9
:100DC0009C91539754968C915497981308C0ED9129
:100DD000FC9111970680F781E02DCD01099581E006
:100DE00090E00F900F90DF91CF910895CF93DF9314
:100DF000FC01228133812230310549F0EC0141E0D0
:100E000061E00E94420C82E090E09B838A83DF9144
:100E1000CF910895CF92DF92EF92FF920F931F939D
:100E2000CF93DF934C3F08F066C0142F072FF62EA8
:100E3000EC01E881F9810484F585E02D0995CE0166
:100E40000E94F60640E06DE0CE010E94420C4A8509
:100E500060E0CE010E94420C4B8560E0CE010E9412
:100E6000420C4C8560E0CE010E94420C4D8560E052
:100E7000CE010E94420CEFB6F89460E08A8D0E9489
:100E8000C603888D998DDC01ED91FC910190F08174
:100E9000E02D60E80995CF2CD02E012F015068F08D
:100EA000888D998DF60161916F01DC01ED91FC91C6
:100EB0000190F081E02D0995F1CF61E08A8D0E94CB
:100EC000C603EFBE44E0410F62E2CE010E94420C35
:100ED0008A819B81039789F043E061E0CE010E9403
:100EE000420C40E460E4CE010E94420C83E090E0BA
:100EF0009B838A8302C080E001C081E0DF91CF91B3
:100F00001F910F91FF90EF90DF90CF900895CF92B7
:100F1000DF92EF92FF92CF93DF93EC01CB01BA0106
:100F200020E034E244E759E40E94C91620E034E2AC
:100F300044E752E40E9421180E9493186B017C013F
:100F4000A7016627772766E0CE010E94420C77272B
:100F50006F2D5E2D4D2D67E0CE010E94420C4C2D71
:100F600068E0CE010E94420C81E0DF91CF91FF90BA
:100F7000EF90DF90CF900895AF92BF92CF92DF9223
:100F8000EF92FF920F931F93CF93DF93CDB7DEB70E
:100F9000C256D1090FB6F894DEBF0FBECDBF88EFA1
:100FA00091E00E94180E1C821B8288EE93E0A0E064
:100FB000B0E08D839E83AF83B88780E591E09A830C
:100FC000898388E895E09E878D871A8A1B8A1C8A08
:100FD00069E774E0CE01855A9F4F0E9405035E01C8
:100FE00085E5A80EB11C61E072E0C5010E94050311
:100FF000CE0101960E94630686E090E00E94C81828
:101000008C01FC01118210821382128215821482DB
:101010008A159B0551F0F50160817181611571059B
:1010200021F0448155810E94DA02198B088BF50169
:10103000808191810E945D196AE072E0C5010E9481
:101040000503888999890E944E10F50144815581D4
:1010500060817181888999890E94AC02F501808143
:1010600091810E945D19888999890E944E10A196EC
:101070004EAD5FADA1976D966EAD7FAD6D978889D2
:1010800099890E94AC0282E5A2968FAFA297E88967
:10109000F989048115812081318142E0C42ED12C4F
:1010A000750141E050E0BE016F597F4F8D859E85EF
:1010B0000E94260EF50181818F8708891989011503
:1010C000110541F0F801808191810E945D19C801EC
:1010D0000E945D19198A188AF5018081811102C068
:1010E00081E08A8B32E7F32EF501F0828F858183D0
:1010F00001E010E09E012F593F4F42E050E0B50162
:101100008D859E850E947A05A2968FADA29781302B
:1011100039F464E670E080E090E00E943204E4CFAD
:1011200087E5A2968FAFA2978F85A3968FAFA397DF
:1011300002E010E0950142E050E0BE016F597F4FA0
:101140008D859E850E947A05F501808190E0982F1B
:10115000882721815C01A20EB11C6D968EAD9FADDA
:101160006D970E945D198DE092E00E944C10C501C0
:101170000E94191084ED94E00E94A206A89580E5D3
:1011800091E09A838983CE0101960E946306C5018E
:10119000CE59DF4F0FB6F894DEBF0FBECDBFDF9143
:1011A000CF911F910F91FF90EF90DF90CF90BF9064
:1011B000AF9008950E94BF1A9FB7F8948091CA0417
:1011C000882319F081508093CA048091CA04811148
:1011D00005C08CB58F7B8CBD1092C9049FBF08954C
:1011E0008CB58F778CBD08958CB580688CBD0895C3
:1011F0006EBD00000DB407FEFDCF8EB508959CB501
:10120000282F23709C7F922B9CBD2DB582FB9927A4
:1012100090F9822F8E7F892B8DBD0895FC017383F9
:1012200062830895FC01778366830895FC017583CA
:10123000648308950895089580E00895FC018185F0
:101240000895FC0180850895FC0187810895FC01C3
:1012500086810895FC01409595854923642B658717
:101260000895FC0164870895FC0163870895FC01DB
:1012700062870895FC0164830895FC0165830895E5
:1012800080E00895FC012281338123303105D1F3C0
:1012900081E00895CF93DF93EC01E881F98102802A
:1012A000F381E02DCE0109958823B9F3DF91CF9129
:1012B000089581E00895089580E090E00895CF9327
:1012C000DF93FC01228133812230310569F0EC018A
:1012D000668D848D0E94C60360E08B8D0E94C603DC
:1012E00082E090E09B838A83DF91CF9108950F93F2
:1012F0001F93CF93DF93EC01162F0FB7F89460E0A4
:101300008A8D0E94C603888D998DDC01ED91FC9138
:10131000612F6F770190F081E02D0995888D998D6F
:10132000DC01ED91FC910190F081E02D60E00995E8
:10133000182F61E08A8D0E94C6030FBF812FDF91B5
:10134000CF911F910F910895CF93DF93FC012681D8
:1013500037812115310549F02130310541F0223026
:10136000310539F02330310531F020E005C024E0AB
:1013700003C028E001C02CE09CB5937F922B9CBD5C
:1013800084819581019709F04AC08CB580628CBD3B
:101390008281938101978430910528F4FC01E25AFF
:1013A000FE4FC08101C0C1E08C2F0E94FF08DFB753
:1013B000F8948091CA04811127C0E6E8F0E0949186
:1013C000EAE9F0E02491E92FF0E0EE0FFF1FE85981
:1013D000FF4FA591B491EC91E22321F461E08AE002
:1013E0000E94C60361E08AE00E94F6038CB580612A
:1013F0008CBD8CB580648CBD61E08DE00E94F603ED
:1014000061E08BE00E94F6038091CA048F5F8093B5
:10141000CA04DFBF8C2FDF91CF910C94FF089CB5DD
:101420009F7D9CBDB5CFCF93DF93EC01888D998DC7
:10143000DC01ED91FC910680F781E02D099561E0DA
:101440008A8D0E94F60361E08A8D0E94C60364E6DD
:1014500070E080E090E00E94320481E0DF91CF9163
:1014600008958F929F92AF92BF92CF92DF92EF92A8
:10147000FF92CF93DF93EC016B010E946C044B0150
:101480005C01E12CF12C0E946C04DC01CB01881979
:101490009909AA09BB098C159D05AE05BF0530F455
:1014A0008A819B81039779F381E001C080E0DF911D
:1014B000CF91FF90EF90DF90CF90BF90AF909F9033
:1014C0008F9008958F929F92AF92BF92CF92DF92AA
:1014D000EF92FF92CF93DF93EC016B010E946C04BB
:1014E0004B015C01E12CF12C0E946C04DC01CB016E
:1014F00088199909AA09BB098C159D05AE05BF0578
:1015000050F4E881F9810280F381E02DCE01099544
:10151000882351F301C080E0DF91CF91FF90EF90DD
:10152000DF90CF90BF90AF909F908F9008958F9253
:101530009F92AF92BF92CF92DF92EF92FF92CF93A2
:10154000DF93FC0126893789232B11F481E038C011
:10155000EC010E946C046B017C0189E0882E912CC7
:10156000A12CB12CE881F9810488F589E02DCE0108
:101570000995882359F30E946C04AB01BC014C19F6
:101580005D096E097F098E899F89A0E0B0E084170C
:101590009507A607B70798F00E94B216A501940117
:1015A0000E9487179B01AC012F5F3F4F4F4F5F4F4A
:1015B000A4E6B0E00E94A6170E943204D3CF80E0D8
:1015C000DF91CF91FF90EF90DF90CF90BF90AF90E1
:1015D0009F908F9008951F920F920FB60F92112433
:1015E000CF92DF92EF92FF920F931F932F933F932F
:1015F0004F935F936F937F938F939F93AF93BF931B
:10160000CF93DF93EF93FF93C091CB04D091CC04A1
:101610008A819B81049709F0CAC02A8D30E0F901C4
:10162000EC55FF4F8491F901E057FF4F0491F90108
:10163000E458FF4F1491112379F081110E949D030A
:10164000E12FF0E0EE0FFF1FE853FF4FA591B4919B
:10165000EC91E02381E009F480E081709D8D892781
:1016600019F09AA19F5F9AA399A1891771F09BA184
:10167000903518F02DE130E002C02BE030E09BA166
:10168000290F311D2BA389A303C08BA18C5E8BA3D3
:101690008BA1803A08F4DDC08DA19EA19695879517
:1016A0009EA38DA38AA1853028F08DA19EA198606C
:1016B0009EA38DA38BA1805A8BA31AA28CA18823F1
:1016C00009F468C08FA18F5F8FA38C3008F4C1C06C
:1016D0008DA19EA1982F9F73892F869586958870DE
:1016E00028E0280F821749F0E82FF0E0EE59FE4F6E
:1016F0003081931719F08F5FF5CF80E020E1829F52
:10170000C00111242DA13EA196E0369527959A950A
:10171000E1F7422F3695279536952795287038E0C2
:10172000320F231749F0E22FF0E0EE59FE4F5081BF
:10173000451719F02F5FF5CF20E0822BAE014459F9
:101740005F4FFA019081DE01A559BF4F9923B1F097
:10175000FA01908121E0290F20839E01290F311D7C
:10176000F90180A7FA0190818C91981788F01CA24A
:1017700081E08F8FCE010E945F090AC08C939C91FB
:10178000973008F460C09C91943408F05CC0E0CFBE
:101790001FA25FC08DA19EA188339B4009F059C054
:1017A00081E08CA31FA2C459DF4F188252C08A81E6
:1017B0009B81039709F04DC08E0101591F4FF8011D
:1017C000808191E0980F9083811137C07E01FDE602
:1017D000EF0EF11CF7018081EF56FF4F90818917C2
:1017E00048F0CE010E945F098B899C8901969C8BF1
:1017F0008B8B23C0FE01E80FF11DE059FF4F608184
:1018000070E06E01FEE6CF0ED11CF601808191E002
:10181000980F908302C0759567958A95E2F761707D
:1018200077278B8D0E94C603F6018081863028F0D1
:101830001082F70180818F5F8083F801808188307A
:1018400040F0108206C01CA28F8598890196988B63
:101850008F87FF91EF91DF91CF91BF91AF919F91D2
:101860008F917F916F915F914F913F912F911F9138
:101870000F91FF90EF90DF90CF900F900FBE0F90E1
:101880001F901895EF92FF920F931F93CF93DF93C2
:101890001F92CDB7DEB77C01162F0FB7F89460E02A
:1018A000DC015A968C9149830E94C603F701808D12
:1018B000918DDC01ED91FC91612F60680190F081C8
:1018C000E02D0995182FF701808D918DDC01ED91A8
:1018D000FC910190F081E02D4981642F099561E030
:1018E000F701828D0E94C6030FBF812F0F90DF91F9
:1018F000CF911F910F91FF90EF900895CF93DF93B9
:10190000FC012281338123303105B9F0EC01828161
:101910009381049771F045E061E0CF010E94420C91
:1019200040E060E4CE010E94420C84E090E09B83A2
:101930008A83C35EDE4F888101C080E0DF91CF9152
:101940000895DF92EF92FF920F931F93CF93DF934F
:10195000EC0162E10E9477092A813B812430310544
:1019600021F4982F907A09F068C02A813B812430B5
:10197000310509F073C086FF71C063E1CE010E949A
:101980007709F82E60E1CE010E947709482F6DE0BB
:10199000CE010E94420CDFB6F89460E08A8D0E946E
:1019A000C603888D998DDC01ED91FC910190F08149
:1019B000E02D60E009958E01025E1F4FEF2CE00ED6
:1019C000E01671F0888D998DDC01ED91FC9101900C
:1019D000F081E02D60E00995F80181938F01F0CF4F
:1019E00061E08A8D0E94C603DFBEFD8E4FEF62E18B
:1019F000CE010E94420C6AE1CE010E94770989580B
:101A00008E878D8DFE01E35EFE4F843090F08E8DCB
:101A10008E838F8D8F8388A1888789A189878D8107
:101A2000811129C09E818C81981729F18E818F3F69
:101A300011F18081882331F026C08F859889019625
:101A4000988B8F874FEF62E1CE01DF91CF911F918D
:101A50000F91FF90EF90DF900C94420C2A813B8114
:101A60002330310579F783FFEDCF8B899C8901966F
:101A70009C8B8B8B08C089899A8901969A8B898B5C
:101A800081E08083D6CFCE010E94F606DBCF809125
:101A9000D2049091D304009711F00C94A10C0895F6
:101AA0008091D0049091D104009711F00C94A10C76
:101AB00008958091CE049091CF04009711F00C947A
:101AC000A10C0895EF92FF920F931F93CF93DF9392
:101AD00000D01F92CDB7DEB78C010E94130AE82E0A
:101AE000811102C0E12C81C0F801838D823029F080
:101AF0008330C1F7FF24F39401C0F12C40E861E08A
:101B0000C8010E94420C6AE070E080E090E00E9410
:101B1000320461E0C8010E947709803819F760E05B
:101B2000F801838D0E94F603F801848D8F3F49F4FC
:101B30008091CD048430B0F691E0980F9093CD045D
:101B4000848FF801948DE92FF0E0EE0FFF1FE25330
:101B5000FB4F11830083911103C069E57DE00AC04A
:101B6000913019F460E57DE005C0923009F0BACFFC
:101B700067E47DE08F2D0E94BE0F40E06EE0C8015B
:101B80000E94420C40E06FE0C8010E94420CC80174
:101B90000E94F60643E050E06EED70E0CE01019643
:101BA0000E94C01649816DE1C8010E94420C4A8121
:101BB0006EE1C8010E94420C4B8166E2C8010E949E
:101BC000420C40E060E2C8010E94420C48E061E241
:101BD000C8010E94420C43E353E169E574E4C80183
:101BE0000E948707C8010E94B00F8E2D0F900F90A2
:101BF0000F90DF91CF911F910F91FF90EF9008957B
:101C0000BC01009791F0FC0101900020E9F73197A9
:101C1000AF01481B590BE091D404F091D504028028
:101C2000F381E02D84ED94E0099480E090E0089544
:101C3000CF93DF930E94000EEC018DE792E00E94AB
:101C4000000E8C0F9D1FDF91CF9108952F923F9230
:101C50004F925F926F927F928F929F92AF92BF92BC
:101C6000CF92DF92EF92FF920F931F93CF93DF9368
:101C7000CDB7DEB72B970FB6F894DEBF0FBECDBF42
:101C80009B878A875B011901FD82EC823A01600E15
:101C9000711E872C7B82912C44244A94542C9B01E6
:101CA000240F351F3F832E839101200F311F398769
:101CB0002887EA85FB858085981608F036C1AA85B5
:101CC000BB8514965C924E92139715968D919C91BC
:101CD0001697DC01ED91FC910190F081E02D6FEF02
:101CE00009956FEF8A859B850E946305EA85FB85D0
:101CF00085819681DC01ED91FC910190F081E02DD0
:101D0000AA85BB856C910995EA85FB856081CF0129
:101D10000E946305AA85BB8515968D919C911697A7
:101D2000DC01ED91FC910190F081E02D682D099589
:101D30006B818A859B850E946305EA85FB85858189
:101D40009681DC01ED91FC910190F081E02D662DF2
:101D50000995662D8A859B850E94630575012E81F4
:101D60003F81E216F306B1F0EA85FB858581968115
:101D70008701DC01ED91FC910190F081E02DD7010C
:101D80006D917D010995F80160818A859B850E948E
:101D90006305E5CF7101AA85BB8515968D919C9150
:101DA000169728853985E216F30691F08701DC0144
:101DB000ED91FC910190F081E02DD7016D917D01B5
:101DC0000995F80160818A859B850E946305E3CFB0
:101DD000DC01ED91FC91AA85BB8514966C91019074
:101DE000F081E02D0995EA85FB8585819681DC01EE
:101DF000ED91FC910190F081E02DAA85BB851396B1
:101E00006C91099564E670E08A859B850E942C059B
:101E10008F3F910509F07DC0EA85FB85548243829E
:101E20006FEFCF010E94630565E070E08A859B85B6
:101E30000E942C05AA85BB856C91262F30E0821765
:101E4000930709F066C0CD010E9463056AE070E067
:101E50008A859B850E942C057C0197FD5AC0682FBE
:101E60008A859B850E9463056AE070E08A859B8570
:101E70000E942C058C0197FD4CC0682F8A859B859C
:101E80000E946305EA821982E981FA810E0F1F1F01
:101E9000E12CF12C65E070E08A859B85E016F10667
:101EA000A9F0EC14FD0491F00E942C0597FD0AC0E6
:101EB000EC81FD81EE0DFF1D8083682F8A859B8557
:101EC0000E946305FFEFEF1AFF0AE4CF0E942C0582
:101ED0007C0197FD1EC065E070E08A859B850E94AD
:101EE0002C0597FD16C0FE2CEE248E0D9F1DAA8595
:101EF000BB8513962D913C9114972817390749F407
:101F00008C918F5F8C93C801C016D10680F4C601F6
:101F10000EC0939464E670E080E090E00E9432048A
:101F20008A859B850E941005C4CE8FEF9FEF2B966C
:101F30000FB6F894DEBF0FBECDBFDF91CF911F91DA
:101F40000F91FF90EF90DF90CF90BF90AF909F9058
:101F50008F907F906F905F904F903F902F9008955B
:101F6000CF93DF93EC0144E06DE40E94420C48E81B
:101F700069E0CE01DF91CF910C94420C8230B8F42D
:101F8000E82FF0E0EE0FFF1FE050FF4F71836083FA
:101F9000813039F080916900836080936900E89A0C
:101FA0000895809169008C6080936900E99A089592
:101FB0008F929F92AF92BF920F931F93CF93DF9315
:101FC000CDB7DEB7A1970FB6F894DEBF0FBECDBF79
:101FD00019A2423008F44AE08E010F5D1F4F842E93
:101FE000912CA12CB12CA50194010E94F017E62F91
:101FF000B901CA0101501109EA3014F4E05D01C0D1
:10200000E95CD801EC93232B242B252B61F7C80125
:102010000E94000EA1960FB6F894DEBF0FBECDBF92
:10202000DF91CF911F910F91BF90AF909F908F90B4
:102030000895CF92DF92EF92FF92CF93DF936C01DE
:10204000990FEE08FF08F7FE14C06DE284ED94E0EE
:102050000E941A03EC0166277727CB016C197D09D2
:102060008E099F094AE00E94D80F7C01EC0EFD1EEC
:1020700006C04AE0C701B6010E94D80F7C018DE777
:1020800092E00E94000E8E0D9F1DDF91CF91FF9078
:10209000EF90DF90CF9008950C94000E0F931F9354
:1020A000CF93DF93EC010C811D810F5F1F4FB801AF
:1020B0000E948502882369F0288139818C819D8165
:1020C0006BE773E0820F931F0E94CD1A1D830C8370
:1020D00081E0DF91CF911F910F91089588E891E001
:1020E0009093D5048093D4048091E60481110BC0B1
:1020F0008091E9049091EA04009711F00E945D1923
:1021000081E08093E6048091E4049091E5040097D7
:1021100011F00C945D190895CF93DF93CDB7DEB71E
:1021200066970FB6F894DEBF0FBECDBF789484B526
:10213000826084BD84B5816084BD85B5826085BDC3
:1021400085B5816085BD80916E00816080936E0051
:102150001092810080918100826080938100809143
:1021600081008160809381008091800081608093F4
:1021700080008091B10084608093B1008091B000B4
:1021800081608093B00080917A00846080937A00AF
:1021900080917A00826080937A0080917A008160D9
:1021A00080937A0080917A00806880937A00109200
:1021B000C10099E288E10FB6F894A8958093600079
:1021C0000FBE90936000E0919105F0919205A08977
:1021D000B18982E08C93A485B5851C92A685B785CC
:1021E00080E18C93108EA489B58986E08C93A289B6
:1021F000B3898C9180618C93A289B3898C9188601A
:102200008C93A289B3898C9180688C930288F3891E
:10221000E02D80818F7D808380918F058111BFC0EB
:1022200081E080938F0588E895E00E94100568EEB4
:1022300073E080E090E00E94320480918D059091DF
:102240008E05DC01ED91FC910084F185E02D09956E
:102250001816190644F355E0F52EEE24E39462E3D4
:10226000D62EE2E4F1E0DE0116968F2D01900D925C
:102270008A95E1F7E092900545E050E0BE016A5F83
:102280007F4F88E895E00E94580663E080918D05B5
:1022900090918E050E941A036AEF70E080E090E052
:1022A0000E94320466EC70E080918D0590918E055D
:1022B0000E9421036AEF70E080E090E00E94320407
:1022C00064EC70E080918D0590918E050E94210351
:1022D00064EF71E080E090E00E94320468EB70E00F
:1022E00080918D0590918E050E94210364EF71E02D
:1022F00080E090E00E94320488E895E00E9410059A
:10230000E7E4F1E0DE0111968F2D01900D928A95A0
:10231000E1F7D092900504E010E09E01255F3F4F69
:1023200045E050E0BE016F5F7F4F88E895E00E9476
:102330007A058F3FBFEF9B0739F468EE73E080E0CA
:1023400090E00E9432048DCF2B852111FFCF04979E
:10235000E9F42C8530E02053310984E6829FA00106
:10236000839F500D11242D8530E0205331096AE000
:10237000629FC001639F900D1124840F951F2E85CD
:1023800030E020533109820F931F02C084E690E0B1
:1023900090938A058093890582E38093900583E971
:1023A00095E00E94620D811104C085E192E00E94D7
:1023B000180EA89543E353E169E574E483E995E0D9
:1023C0000E94870783E995E00E94B00FA89580914D
:1023D000770490917804892B09F013C181E292E08F
:1023E0000E94180E82E48E8383E48F8382E08887C4
:1023F0008AE3898710928A031092890310E50AE420
:1024000031E4F32E42E0E42E8091890390918A0317
:10241000883C91050CF0DEC085E392E00E94180E26
:10242000A89544E0BE016A5F7F4F83E995E00E9472
:102430000A07A89583E995E00E944209A89564EFF0
:1024400071E083E995E00E94620A882309F477C06D
:10245000A8958CE492E00E94180E109279041B87D4
:10246000AE01455F5F4F69E774E083E995E00E9444
:102470004002882309F4A4C0A895809179048A3485
:1024800009F09EC080917A04823509F099C080914C
:102490007B04823009F094C080917C04811103C0D8
:1024A00080E093E049C025E0C22ED12C0983FA8256
:1024B000EB8280917C048C8384E692E00E944C1035
:1024C00060917C0470E080E090E04AE00E94D80FC8
:1024D0008DE792E00E94000EA89544E0BE016F5F78
:1024E0007F4F83E995E00E940A07A89583E995E06C
:1024F0000E944209A895109288031092870364EF06
:1025000071E080E090E00E943204E1E0CE1AD10850
:1025100069F620917C04422F50E0EFE8F3E063E09D
:10252000E33AF60711F18191082E000C990B8417FC
:102530009507A9F780E892E00E94180E41C08091AB
:102540008703909188030196909388038093870373
:102550004097B4F181E090E0909378048093770401
:10256000109288031092870335C080916F04909178
:102570007004FC01E157FC4F208301969093700496
:1025800080936F048CE593E00E944C1060917C0472
:1025900070E080E090E04AE00E94D80F8DE792E082
:1025A0000E94000E8BE693E00E944C1080916F0415
:1025B000909170040E941910109288031092870362
:1025C0008091890390918A03019690938A03809366
:1025D00089031ACFA89564E670E080E090E00E943D
:1025E000320485E992E00E94180E0E946C04609308
:1025F0007304709374048093750490937604A89583
:10260000EDC18091710490917204019690937204CF
:10261000809371041BECE12E13E0F12E0BE1A02E50
:1026200004E0B02E83E494E0988B8F8783EA282E11
:1026300083E0382E93EF892E93E0992E0FE813E074
:1026400020916F0430917004C8018F589340821715
:1026500093070CF0B8C1A89562E370E080E090E0C9
:102660000E943204D8018C91811105C08EE992E05C
:102670000E94180EA8C1B3E0CB2ED12CB4E4BE83C7
:10268000E2E5EF83F2E0F887D8018C91898780EC4E
:1026900092E00E944C10698570E080E090E04AE092
:1026A0000E94D80FA89544E0BE016A5F7F4F83E97E
:1026B00095E00E940A07A89583E995E00E944209E7
:1026C000A89560ED77E083E995E00E94620A88238F
:1026D00009F432C1A8958BED92E00E94180EE9E74B
:1026E000F4E020E511922A95E9F740E54B87A8959B
:1026F000AE01455F5F4F69E774E083E995E00E94B2
:102700004002882309F445C1A89510928E031092C7
:102710008D032B8530E0290152E0451A5108B201A2
:10272000550C880B990B698B7A8B8B8B9C8B672B49
:10273000682B692B59F1E9E7F4E0412C512C320167
:1027400080E090E049895A896B897C894416550656
:1027500066067706E8F44191942740E050E0BC011A
:10276000660F771F97FF06C0CB01A1E28A27A0E181
:102770009A2701C0CB014F5F5F4F4830510579F771
:10278000BFEF4B1A5B0A6B0A7B0ADCCF80E090E05C
:10279000F901E858FB4F408150E0542F4427F901DC
:1027A000E958FB4F2081422B8417950759F461E0CB
:1027B00070E070938C0360938B0381EF92E00E9432
:1027C000180E04C010928C0310928B0380918B031F
:1027D00090918C03019709F099C010928C0310928C
:1027E0008B0380917904843409F080C080917A044D
:1027F000833509F07BC080917B04823009F076C07C
:1028000090917C048985981371C0A8958091A10549
:10281000282F082E000C330B3F938F9389EF92E003
:102820009F938F9381E090E08C0F9D1F9F938F93D8
:102830000E94D41AA89527E62093790431E63093B4
:102840007A0429E620937B0430937C0430E23093B1
:102850007D044B8550E0FA01E758FB4FDF011297EA
:1028600032E73C93119633E73C93308321832CE28B
:102870002283BE016F5F7F4F0F900F900F900F90DC
:102880000F900F9020E030E0281739076CF4DB013F
:10289000DD90BD01D901A40FB51FA758BB4F1396FA
:1028A000DC922F5F3F4FF0CF97FF02C080E090E0B7
:1028B000E80FF91F8BE283831482A895F1018081D0
:1028C00091810196918380830E94BC078A3F910584
:1028D00039F4D4018D919C91119701968D939C931D
:1028E000A89510928E0310928D0358C0F501808137
:1028F000918101969183808380918D0390918E03C5
:10290000019690938E0380938D0343C0AF85B88961
:102910008D919C91119701968D939C9380918D033D
:1029200090918E03019690938E0380938D038CEF8C
:1029300092E00E94180E2DC0F701808191810196CE
:102940009183808380918D0390918E030196909363
:102950008E0380938D030397E1F410928E031092FF
:102960008D0386E093E00E944C10D8016C9184EDB9
:1029700094E00E941A038DE792E00E94000E81E22B
:1029800093E00E944C1080916F04909170040E941B
:102990001910B1E0CB1AD10809F070CEE2E0EE0ECA
:1029A000F11C0F5F1F4FF2E0AF0EB11C4F8558892D
:1029B0004E5F5F4F588B4F8752E0250E311C62E00F
:1029C000860E911C3DCEA8958FE293E00E944C109C
:1029D00080916F04909170040E94191062E370E07E
:1029E00080E090E00E9432040E946C040091730425
:1029F000109174042091750430917604DC01CB01B0
:102A0000801B910BA20BB30B813A9B4BAD40B105E0
:102A100008F4C9C08EE393E00E94180E1092780467
:102A20001092770410926B0410926C0410926D0453
:102A300010926E0480E5E9E7F4E0DF011D928A95CB
:102A4000E9F783E4882E84E0982E0BE114E093EFFD
:102A5000C92E93E0D92E2BECA22E23E0B22E33EA1E
:102A6000E32E33E0F32E4FE8642E43E0742E5EE055
:102A7000252E51E0352E2F0120916F0430917004E6
:102A8000C3018F589340821793070CF065C0F4017F
:102A9000F081FF87F401A181F2E08F0E911CF80113
:102AA0007081F181F98B0E5F1F4FF60150816181BA
:102AB000F2E0CF0ED11CF50130814181F2E0AF0E82
:102AC000B11CF70190812181F2E0EF0EF11CF301BE
:102AD00081913F01B0917204BF93B0917104BF9393
:102AE000AF93FF85FF93A989AF937F936F935F9314
:102AF0004F933F932F939F93282F082E000C330B57
:102B00003F938F933F922F925F924F920E94D41ADD
:102B100029E734E00FB6F894DEBF0FBECDBFB4E0B6
:102B2000293C3B0761F0D9016D919D0184ED94E052
:102B3000AD8B3E8B0E941A033E892D89F0CF8DE725
:102B400092E00E94000E0E94BC076AE070E080E004
:102B500090E00E94320490CF10927204109271049F
:102B600088E2EBE1F4E0DF01282F1D922A95E9F7D6
:102B7000EBECF3E0DF01282F1D922A95E9F7E3EA59
:102B8000F3E0DF01282F1D922A95E9F7E3EFF3E048
:102B9000DF01282F1D922A95E9F7E3E4F4E0DF0135
:102BA0001D928A95E9F70E94990111CCCF93DF938A
:102BB000EBEEF4E01382128248EE53E060E070E046
:102BC000448355836683778386E791E0918380838E
:102BD00085EC90E09587848784EC90E097878687E2
:102BE00080EC90E0918B808B81EC90E0938B828BDA
:102BF00082EC90E0958B848B86EC90E0978B868BB3
:102C0000118E128E138E148EA4EDB4E013961C92C6
:102C10001E92129714964D935D936D937C93179724
:102C200088E891E011969C938E93C8E8D5E01D96B4
:102C3000DC93CE931C971E961C921E971F961C9297
:102C40001F9751961C921E92509781E052968C933A
:102C50001882FE83ED831F821886FA87E987A1EB2D
:102C6000B6E013961C921E92129715961C921E9215
:102C7000149717961C921E92169788EB91E0119666
:102C80009C938E93E3E9F5E0138212828FEF8483A5
:102C90008287838714861586108A1786128A118A7E
:102CA000148A138A178A168AB18FA08F9AE0928F9E
:102CB0002CEC31E0318320831092B00692E0938FA8
:102CC000848FDF91CF9108958F929F92AF92BF92A0
:102CD000CF92DF92EF92FF92CF93DF93EC01688166
:102CE00079818A819B81611571058105910521F4A6
:102CF00064E279ED8BE597E02DE133EF41E050E0C0
:102D00000E94871749015A019B01AC01A7EAB1E46F
:102D10000E94A6176B017C01ACEEB4EFA5019401F3
:102D20000E94B417DC01CB018C0D9D1DAE1DBF1D93
:102D3000B7FF03C00197A109B04888839983AA838C
:102D4000BB83BC01CD019F77DF91CF91FF90EF90C6
:102D5000DF90CF90BF90AF909F908F9008950E948A
:102D60006416089584E091E00E94641608956093CB
:102D70000401709305018093060190930701089563
:102D8000FB01DC0102C005900D9241505040D8F784
:102D900008950E94DC160C944D170E943F1738F0DE
:102DA0000E94461720F0952311F00C9436170C94CE
:102DB0003C1711240C9481170E945E1770F3959FA5
:102DC000C1F3950F50E0551F629FF001729FBB2722
:102DD000F00DB11D639FAA27F00DB11DAA1F649FBE
:102DE0006627B00DA11D661F829F2227B00DA11D71
:102DF000621F739FB00DA11D621F839FA00D611DF7
:102E0000221F749F3327A00D611D231F849F600D17
:102E1000211D822F762F6A2F11249F5750409AF040
:102E2000F1F088234AF0EE0FFF1FBB1F661F771FCC
:102E3000881F91505040A9F79E3F510580F00C9497
:102E400036170C9481175F3FE4F3983ED4F38695D0
:102E500077956795B795F795E7959F5FC1F7FE2B37
:102E6000880F911D9695879597F9089597F99F6713
:102E700080E870E060E008959FEF80EC0895002402
:102E80000A941616170618060906089500240A94CF
:102E900012161306140605060895092E0394000C55
:102EA00011F4882352F0BB0F40F4BF2B11F460FFE4
:102EB00004C06F5F7F4F8F4F9F4F089557FD90580D
:102EC000440F551F59F05F3F71F04795880F97FBEE
:102ED000991F61F09F3F79F08795089512161306A8
:102EE0001406551FF2CF4695F1DF08C016161706D7
:102EF0001806991FF1CF869571056105089408950C
:102F0000E894BB2766277727CB0197F90895052E0C
:102F100097FB1EF400940E949E1757FD07D00E9455
:102F2000F01707FC03D04EF40C949E175095409573
:102F3000309521953F4F4F4F5F4F08959095809565
:102F4000709561957F4F8F4F9F4F08950E94121883
:102F5000A59F900DB49F900DA49F800D911D1124ED
:102F60000895B7FF0C94A6170E94A617821B930B17
:102F700008952F923F924F925F926F927F928F921D
:102F80009F92AF92BF92CF92DF92EF92FF920F93F8
:102F90001F93CF93DF93CDB7DEB7CA1BDB0B0FB602
:102FA000F894DEBF0FBECDBF09942A8839884888BF
:102FB0005F846E847D848C849B84AA84B984C88455
:102FC000DF80EE80FD800C811B81AA81B981CE0F4C
:102FD000D11D0FB6F894DEBF0FBECDBFED01089531
:102FE000A1E21A2EAA1BBB1BFD010DC0AA1FBB1F0D
:102FF000EE1FFF1FA217B307E407F50720F0A21B7F
:10300000B30BE40BF50B661F771F881F991F1A94EB
:1030100069F760957095809590959B01AC01BD0115
:10302000CF010895A29FB001B39FC001A39F700D6F
:10303000811D1124911DB29F700D811D1124911DC0
:1030400008950E9435180C944D170E94461758F0A9
:103050000E943F1740F029F45F3F29F00C94361787
:1030600051110C9481170C943C170E945E1768F361
:103070009923B1F3552391F3951B550BBB27AA2731
:1030800062177307840738F09F5F5F4F220F331F6B
:10309000441FAA1FA9F335D00E2E3AF0E0E832D033
:1030A00091505040E695001CCAF72BD0FE2F29D036
:1030B000660F771F881FBB1F261737074807AB0708
:1030C000B0E809F0BB0B802DBF01FF2793585F4F7D
:1030D0003AF09E3F510578F00C9436170C94811706
:1030E0005F3FE4F3983ED4F3869577956795B7955F
:1030F000F7959F5FC9F7880F911D9695879597F96A
:103100000895E1E0660F771F881FBB1F62177307E2
:103110008407BA0720F0621B730B840BBA0BEE1FF7
:1031200088F7E09508950E94661788F09F5798F0F9
:10313000B92F9927B751B0F0E1F0660F771F881FBC
:10314000991F1AF0BA95C9F714C0B13091F00E94D6
:103150008017B1E008950C948017672F782F882787
:10316000B85F39F0B93FCCF3869577956795B395FD
:10317000D9F73EF490958095709561957F4F8F4F6C
:103180009F4F0895EE0FFF1F0590F491E02D0994D5
:10319000CF93DF938230910510F482E090E0E091CC
:1031A000BB06F091BC0620E030E0C0E0D0E03097F4
:1031B00011F14081518148175907C0F0481759074C
:1031C00061F482819381209719F09B838A832BC0BD
:1031D0009093BC068093BB0626C02115310519F0DB
:1031E0004217530718F49A01BE01DF01EF01028074
:1031F000F381E02DDCCF2115310509F1281B390BB6
:103200002430310590F412968D919C91139761159D
:10321000710521F0FB019383828304C09093BC0667
:103220008093BB06FD01329644C0FD01E20FF31FFF
:1032300081939193225031092D933C933AC0209170
:10324000B9063091BA06232B41F420910A0130913E
:103250000B013093BA062093B906209108013091F2
:1032600009012115310541F42DB73EB740910C01FC
:1032700050910D01241B350BE091B906F091BA066F
:10328000E217F307A0F42E1B3F0B2817390778F03D
:10329000AC014E5F5F4F2417350748F04E0F5F1F9C
:1032A0005093BA064093B9068193919302C0E0E02F
:1032B000F0E0CF01DF91CF9108950F931F93CF934B
:1032C000DF93009709F48CC0FC01329713821282BD
:1032D0000091BB061091BC060115110581F42081F7
:1032E0003181820F931F2091B9063091BA062817B9
:1032F000390779F5F093BA06E093B90671C0D801A1
:1033000040E050E0AE17BF0750F412962D913C916B
:103310001397AD012115310509F1D901F3CF9D01B5
:10332000DA013383228360817181860F971F8217B0
:10333000930769F4EC0128813981260F371F2E5F2E
:103340003F4F318320838A819B8193838283452BE6
:1033500029F4F093BC06E093BB0642C01396FC939D
:10336000EE931297ED01499159919E01240F351F5B
:10337000E217F30771F480819181840F951F029603
:1033800011969C938E938281938113969C938E9336
:103390001297E0E0F0E0D80112968D919C9113977E
:1033A000009719F0F8018C01F6CF8D919C9198014E
:1033B0002E5F3F4F820F931F2091B9063091BA06BE
:1033C0002817390769F4309729F41092BC06109237
:1033D000BB0602C0138212821093BA060093B9068C
:1033E000DF91CF911F910F910895A0E0B0E0EBEF36
:1033F000F9E10C94BD17EC01009721F4CB010E9478
:10340000C818B8C0FC01E60FF71F9C012250310913
:10341000E217F30708F4ACC0D9010D911C91119784
:1034200006171707B0F00530110508F49FC0C80152
:1034300004978617970708F499C002501109061BD4
:10344000170B019311936D937C93CF010E945D192B
:103450008DC05B01A01AB10A4C01800E911EA09193
:10346000BB06B091BC0640E050E0E12CF12C109777
:1034700009F44AC0A815B905D1F56D907C90119753
:10348000630182E0C80ED11CCA14DB0480F1A301E1
:103490004A195B096A0182E0C80ED11C1296BC90E1
:1034A00012971396AC91B5E0CB16D10440F0B282DE
:1034B000A38351834083D9016D937C930AC00E5F2F
:1034C0001F4FC301800F911FF90191838083EB2D62
:1034D000FA2FE114F10431F0D7011396FC93EE9327
:1034E000129744C0F093BC06E093BB063FC08D9199
:1034F0009C9111974817590708F4AC017D01129669
:103500000D90BC91A02DB3CF8091B9069091BA06D1
:1035100088159905E1F446175707C8F4809108010A
:1035200090910901009741F48DB79EB740910C012D
:1035300050910D01841B950BE817F907C8F4F0931F
:10354000BA06E093B906F901718360830FC0CB011D
:103550000E94C8187C01009759F0A801BE010E9482
:10356000C41ACE010E945D19C70104C0CE0102C079
:1035700080E090E0CDB7DEB7EEE00C94D91781E0A3
:1035800090E0F8940C94751DFB01DC0102C00190E1
:103590000D9241505040D8F70895FB01DC01019095
:1035A0000D920020E1F70895AEE0B0E0EAEDFAE117
:1035B0000C94C7170D891E8986E08C831A830983B2
:1035C0008FEF9FE79E838D83AE01475E5F4F6F89CC
:1035D000788DCE0101960E94F71A2F813885F80167
:1035E000E20FF31F10822E96E4E00C94E317ACE098
:1035F000B0E0EDEFFAE10C94B9177C016B018A01A0
:10360000FC0117821682838181FFBDC1CE01019624
:103610004C01F7019381F60193FD859193FF819110
:103620006F01882309F4ABC1853239F493FD85918C
:1036300093FF81916F01853229F4B70190E00E94D8
:10364000DF1CE7CF512C312C20E02032A0F48B324C
:1036500069F030F4803259F0833269F420612CC073
:103660008D3239F0803339F4216026C02260246025
:1036700023C0286021C027FD27C030ED380F3A3025
:1036800078F426FF06C0FAE05F9E300D1124532E19
:1036900013C08AE0389E300D1124332E20620CC0F6
:1036A0008E3221F426FD6BC1206406C08C3611F4E5
:1036B000206802C0883641F4F60193FD859193FF9E
:1036C00081916F018111C1CF982F9F7D95549330C7
:1036D00028F40C5F1F4FFFE3F9830DC0833631F0F0
:1036E000833771F0833509F05BC022C0F801808117
:1036F00089830E5F1F4F44244394512C540115C0FD
:103700003801F2E06F0E711CF801A080B18026FF35
:1037100003C0652D70E002C06FEF7FEFC5012C87FD
:103720000E94D41C2C0183012C852F77222E17C0D8
:103730003801F2E06F0E711CF801A080B18026FF05
:1037400003C0652D70E002C06FEF7FEFC5012C87CD
:103750000E94C91C2C012C852068222E830123FC89
:103760001BC0832D90E048165906B0F4B70180E2E3
:1037700090E00E94DF1C3A94F4CFF50127FC85917C
:1037800027FE81915F01B70190E00E94DF1C31109C
:103790003A94F1E04F1A51084114510471F7E5C011
:1037A000843611F0893639F5F80127FF07C06081AA
:1037B0007181828193810C5F1F4F08C0608171818C
:1037C000072E000C880B990B0E5F1F4F2F76722E61
:1037D00097FF09C090958095709561957F4F8F4FA9
:1037E0009F4F2068722E2AE030E0A4010E94171D2E
:1037F000A82EA81844C0853729F42F7EB22E2AE0BF
:1038000030E025C0F22FF97FBF2E8F36C1F018F4BB
:10381000883579F0B4C0803719F0883721F0AFC00F
:103820002F2F2061B22EB4FE0DC08B2D8460B82ED8
:1038300009C024FF0AC09F2F9660B92E06C028E059
:1038400030E005C020E130E002C020E132E0F801C4
:10385000B7FE07C060817181828193810C5F1F4F29
:1038600006C06081718180E090E00E5F1F4FA4016F
:103870000E94171DA82EA818FB2DFF777F2E76FE1D
:103880000BC0372D3E7FA51450F474FE0AC072FCA5
:1038900008C0372D3E7E05C0BA2C372D03C0BA2C88
:1038A00001C0B52C34FF0DC0FE01EA0DF11D808171
:1038B000803311F4397E09C032FF06C0B394B3944B
:1038C00004C0832F867809F0B39433FD13C030FF12
:1038D00006C05A2CB31418F4530C5B18B32CB31451
:1038E00068F4B70180E290E03C870E94DF1CB3944B
:1038F0003C85F5CFB31410F43B1801C0312C34FFD4
:1039000012C0B70180E390E03C870E94DF1C3C8539
:1039100032FF17C031FD03C088E790E002C088E5A0
:1039200090E0B7010CC0832F867859F031FF02C0B8
:103930008BE201C080E237FD8DE2B70190E00E948A
:10394000DF1CA51438F4B70180E390E00E94DF1C6F
:103950005A94F7CFAA94F401EA0DF11D8081B701C2
:1039600090E00E94DF1CA110F5CF332009F451CE66
:10397000B70180E290E00E94DF1C3A94F6CFF70195
:103980008681978102C08FEF9FEF2C96E2E10C9425
:10399000D517FC010590615070400110D8F7809553
:1039A00090958E0F9F1F0895FC016150704001900B
:1039B0000110D8F7809590958E0F9F1F08950F9353
:1039C0001F93CF93DF93FB01238121FD03C08FEF72
:1039D0009FEF28C022FF16C0468157812481358180
:1039E0004217530744F4A081B1819D012F5F3F4FDF
:1039F000318320838C93268137812F5F3F4F37831C
:103A0000268310C0EB01092F182F0084F185E02DCB
:103A10000995892BE1F68E819F8101969F838E8384
:103A2000812F902FDF91CF911F910F910895FA016F
:103A3000AA27283051F1203181F1E8946F936E7FED
:103A40006E5F7F4F8F4F9F4FAF4FB1E03ED0B4E0DE
:103A50003CD0670F781F891F9A1FA11D680F791F1F
:103A60008A1F911DA11D6A0F711D811D911DA11D30
:103A700020D009F468943F912AE0269F1124301940
:103A8000305D3193DEF6CF010895462F4770405DDB
:103A90004193B3E00FD0C9F7F6CF462F4F70405D8A
:103AA0004A3318F0495D31FD4052419302D0A9F7E5
:103AB000EACFB4E0A6959795879577956795BA95DF
:103AC000C9F700976105710508959B01AC010A2EA5
:103AD00006945795479537952795BA95C9F7620F7C
:103AE000731F841F951FA01D089510E0C2E7D0E04A
:103AF00004C0FE010E94C2182196C337D107C9F73E
:043B0000F894FFCF67
:103B0400C801C801010000000000BD068000676113
:103B140069612025752F6D73672C25752B7265746B
:103B24002C25752B7075622C25752B696E762C25CA
:103B3400752B6372632C25752B6379632C25752B88
:103B44000000585858585858583130300000000078
:103B540085069D005C09C901EA05D205BF0505007B
:103B640004040D0E131516191A1C232526292A2CB4
:103B740032340000000030019D00C8007701F900D4
:103B8400D700EB0000000000B606CC015C09A206D9
:103B94004E0634061F0600000000DA089D005C098A
:103BA4005B09DA08DA08DA0800000000DA089D0088
:103BB4005C095B0900000000F808F408F008A40997
:103BC400DC08160912090E0900000000620D7E0CC3
:103BD40040020A07CA014A094209310A620A970ADD
:103BE40040093A093709340931092A093D092709E5
:103BF400240921091E092B0253656E644D717474E6
:103C0400002F62696E2F617368002D630052657422
:103C140075726E3A00696E6974206661696C6564D8
:103C24000073657420757020746865206E65747700
:103C34006F726B200073656E642062726F616463DF
:103C4400617374206D6573736167650047657420E3
:103C5400616E20696E636F6D696E67206D65737345
:103C64006167650053656E64204A6F696E20414345
:103C74004B20746F20636C69656E743A000D0A0002
:103C8400636C69656E7420616C726561647920731C
:103C9400746F7265007365742075702121007468F7
:103CA4006520636C69656E7420636F6E6E65637402
:103CB400206865726520686173206C6561746600B4
:103CC4005265717565737420446174612066726F06
:103CD4006D20636C69656E743A20004765742069D1
:103CE4006E636F6D696E67206D65737361676520C0
:103CF400004352432B2B2B2B0025640043524320BB
:103D04004572726F7200436C69656E74206973202A
:103D14006E6F7220726573706F6E64732049443ADB
:103D240000436C69656E74206E756D626572004344
:103D34006C69656E74206E756D6265723A005265C9
:103D44006672657368206E6574776F726B20616646
:103D54007465722074696D656F7574004E657720A3
:103D6400636C69656E742069643A00436C69656EBE
:0E3D740074206E756D626572733A00FE000079
:00000001FF
