:100000000C9479000C94F30E0C94CC0E0C94A1007B
:100010000C94A1000C94A1000C94A1000C94A100DC
:100020000C94A1000C94A1000C94A1000C941A0F44
:100030000C94A1000C94A1000C94A1000C94A100BC
:100040000C94820E0C94A1000C94500E0C942A0E69
:100050000C94A1000C94A1000C94A1000C94A1009C
:100060000C94A1000C94A1000000000023002600C5
:10007000290072740092740048940078C40072944D
:10008000008274009364009270009294000000005B
:1000900000240027002A0000000000250028002B73
:1000A0000004040404040404040202020202020321
:1000B000030303030301020408102040800102042B
:1000C00008102001020408102000000008000201AE
:1000D0000000030407000000000000000072756EBD
:1000E0002D6272696467650A000A000A00005C10EC
:1000F000091611241FBECFEFD8E0DEBFCDBF13E03D
:10010000A0E0B1E0E0EFFAE302C005900D92A8375D
:10011000B107D9F726E0A8E7B3E001C01D92AB3BD9
:10012000B207E1F710E0C8E7D0E004C02197FE0174
:100130000E94CD18C737D107C9F70E94EA100C9466
:100140006B1D0C940000E82FF0E0EE0FFF1FE05055
:10015000FF4F71836083813039F080916900836043
:1001600080936900E89A0895809169008C6080937B
:100170006900E99A0895DC01ED91FC910190F0810C
:10018000E02D0994EF92FF920F931F93CF93DF938B
:100190008C017B01D0E0C0E0F701EC0FFD1F649102
:1001A000662361F0D801ED91FC910190F081E02D82
:1001B000C8010995892B11F02196EECFCE01DF9170
:1001C000CF911F910F91FF90EF900895AF92BF9242
:1001D000CF92DF92EF92FF920F931F93CF93DF9313
:1001E0006C017B018B01040F151FEB015E01AE1842
:1001F000BF08C017D10759F06991D601ED91FC9164
:100200000190F081E02DC6010995892B79F7C50190
:10021000DF91CF911F910F91FF90EF90DF90CF90E2
:10022000BF90AF900895FC01538D448D252F30E091
:10023000842F90E0821B930B541710F0CF960895F3
:1002400001970895FC01918D828D981761F0A28D20
:10025000AE0FBF2FB11D5D968C91928D9F5F9F73E6
:10026000928F90E008958FEF9FEF0895FC01918D9C
:10027000828D981731F0828DE80FF11D858D90E009
:1002800008958FEF9FEF0895FC01918D228D892FA6
:1002900090E0805C9F4F821B91098F73992708958E
:1002A00088EE94E00E94440121E0892B09F420E0CB
:1002B000822F089580E090E0892B29F00E94500160
:1002C00081110C9400000895FC01A48DA80FB92F92
:1002D000B11DA35ABF4F2C91848D90E001968F736E
:1002E0009927848FA689B7892C93A089B1898C918D
:1002F000837080648C93938D848D981306C00288DC
:10030000F389E02D80818F7D80830895EF92FF92A5
:100310000F931F93CF93DF93EC0181E0888F9B8D28
:100320008C8D98131AC0E889F989808185FF15C0E2
:100330009FB7F894EE89FF896083E889F989808105
:100340008370806480839FBF81E090E0DF91CF91D4
:100350001F910F91FF90EF900895F62E0B8D10E0F6
:100360000F5F1F4F0F731127E02E8C8D8E110CC065
:100370000FB607FCFACFE889F989808185FFF5CFB0
:10038000CE010E946401F1CFEB8DEC0FFD2FF11D2A
:10039000E35AFF4FF0829FB7F8940B8FEA89FB89ED
:1003A00080818062CFCFCF93DF93EC01888D88234B
:1003B000B9F0AA89BB89E889F9898C9185FD03C0C8
:1003C000808186FD0DC00FB607FCF7CF8C9185FFAD
:1003D000F2CF808185FFEDCFCE010E946401E9CF8D
:1003E000DF91CF910895833081F028F4813099F026
:1003F0008230A9F008958730A9F08830C9F08430A0
:10040000B1F4809180008F7D03C0809180008F7750
:1004100080938000089584B58F7784BD089584B556
:100420008F7DFBCF8091B0008F778093B0000895CF
:100430008091B0008F7DF9CF1F93CF93DF93282F4A
:1004400030E0F901E753FF4F8491F901EB54FF4F7E
:10045000D491F901EF55FF4FC491CC23A9F0162F89
:1004600081110E94F301EC2FF0E0EE0FFF1FE9561F
:10047000FF4FA591B4918FB7F894EC91111108C07A
:10048000D095DE23DC938FBFDF91CF911F9108952C
:10049000DE2BF8CFCF93DF9390E0FC01EB54FF4FBE
:1004A00024918F559F4FFC0184918823D1F090E0D7
:1004B000880F991FFC01E357FF4FA591B491FC01F0
:1004C000E956FF4FC591D49161110EC09FB7F894C2
:1004D0008C91E22FE0958E238C932881E223E88390
:1004E0009FBFDF91CF9108958FB7F894EC91E22BE5
:1004F000EC938FBFF6CF3FB7F8948091850390912E
:100500008603A0918703B091880326B5A89B05C0F8
:100510002F3F19F00196A11DB11D3FBFBA2FA92F82
:10052000982F8827BC01CD01620F711D811D911D7F
:1005300042E0660F771F881F991F4A95D1F70895EB
:100540008F929F92AF92BF92CF92DF92EF92FF92E3
:100550006B017C010E947B024B015C01C114D10440
:10056000E104F104B9F00E947B02681979098A0953
:100570009B09683E73408105910580F321E0C21A12
:10058000D108E108F10888EE880E83E0981EA11CCE
:10059000B11CE4CFFF90EF90DF90CF90BF90AF9071
:1005A0009F908F9008952FB7F89460918103709178
:1005B000820380918303909184032FBF089508954F
:1005C0000895CF93DF93EC018D819E81DC01ED9145
:1005D000FC910084F185E02D09951816190654F454
:1005E0008D819E81DC01ED91FC910284F385E02DEB
:1005F0000995EACFDF91CF9108958F929F92AF92A4
:10060000BF92CF92DF92EF92FF92CF93DF93EC01F4
:100610006B010E94D3024B015C01F12CE12C8D8116
:100620009E81DC01ED91FC910284F385E02D09951A
:1006300097FF0DC00E94D302681979098A099B09A6
:100640006C157D058E059F0550F38FEF9FEFDF91B1
:10065000CF91FF90EF90DF90CF90BF90AF909F90A1
:100660008F900895FC01238134812627022E229544
:10067000207F2025032E322F22952F7002262695CB
:1006800032272327220F220F220F20253483238392
:1006900008952F923F924F925F926F927F928F9226
:1006A0009F92AF92BF92CF92DF92EF92FF920F9301
:1006B0001F93CF93DF93CDB7DEB72A970FB6F89489
:1006C000DEBF0FBECDBF9A8789875B012901370145
:1006D0001A01200E311E3A82198288248A94982C9D
:1006E0009A01260F371F3E832D83C801840D951D67
:1006F00098878F83A985BA8518968C91B981B81788
:1007000008F040C1E985FA859482838285819681CB
:10071000DC01ED91FC910190F081E02D6FEF0995E6
:100720006FEF89859A850E943203E985FA85858174
:100730009681DC01ED91FC910190F081E02DA9857D
:10074000BA856C910995E985FA856081CF010E948F
:100750003203A985BA8515968D919C91DC01ED91A6
:10076000FC910190F081E02D6A8109956A8189856B
:100770009A850E943203E985FA8585819681DC019C
:10078000ED91FC910190F081E02D622D0995622D93
:1007900089859A850E9432038501E985FA858581DC
:1007A0009681DC01ED91FC910190F081E02D2D818D
:1007B0003E8120173107E1F48201E985FA858581C0
:1007C0009681DC01ED91FC910190F081E02D2F816B
:1007D000388520173107C1F0D8016D918D01099539
:1007E000F8013197608189859A850E943203E5CFAF
:1007F000D8016D918D010995F80131976081898546
:100800009A850E943203C9CFA985BA8514966C9146
:100810000995E985FA8585819681DC01ED91FC9148
:100820000190F081E02DA985BA8513966C91099508
:1008300068EC70E089859A850E94FD028F3F9105E2
:1008400009F092C0E985FA85948283826FEFCF0127
:100850000E94320365E070E089859A850E94FD025E
:10086000A985BA856C916817190609F07DC0CD017C
:100870000E9432036AE070E089859A850E94FD0239
:100880007C0197FD71C0682F89859A850E9432038B
:100890006AE070E089859A850E94FD028C0197FDCF
:1008A00063C0682F89859A850E943203EC821B827F
:1008B000EB81FC810E0F1F1FF12CE12C65E070E035
:1008C00089859A850E151F05A1F0EC14FD0489F0A9
:1008D0000E94FD0297FD09C0F301EE0DFF1D80830C
:1008E000682F89859A850E943203FFEFEF1AFF0A6D
:1008F000E5CF0E94FD027C0197FD36C065E070E007
:1009000089859A850E94FD0297FD2EC0FE2CEE245B
:100910008E0D9F1DA985BA8513962D913C91149734
:100920008217930709F58C918F5F8C93C801C016CD
:10093000D10608F4C6012A960FB6F894DEBF0FBEA2
:10094000CDBFDF91CF911F910F91FF90EF90DF907E
:10095000CF90BF90AF909F908F907F906F905F905F
:100960004F903F902F900895B981BF5FB98364E69F
:1009700070E080E090E00E94A00289859A850E9444
:10098000E102B8CE8FEF9FEFD6CF8F929F92AF92BA
:10099000BF92CF92DF92EF92FF920F931F93CF936C
:1009A000DF931F92CDB7DEB75C019B014A01DC01EA
:1009B00052968C91811128C08B017B01E40EF51EAB
:1009C0000E151F0591F1D50155962D913C91569725
:1009D0005396EC91539781E08E0F53968C93D801E8
:1009E0008D918D01E20FF32FF11D8083F501938925
:1009F00084899813E5CF0190F081E02D0680F7817E
:100A0000E02DC5010995DCCF80E58983D12CC12C6F
:100A1000F12CE12C8A0141E050E0BE016F5F7F4F75
:100A2000F501848595850E944903C4010F90DF91EB
:100A3000CF911F910F91FF90EF90DF90CF90BF90DB
:100A4000AF909F908F900895CF92DF92EF92FF9298
:100A50000F931F936801790110E000E030E020E07F
:100A60000E9449031F910F91FF90EF90DF90CF906C
:100A70000895EF92FF920F931F93CF93DF9300D0CF
:100A80001F92CDB7DEB7FC012289211118C07C016D
:100A9000138A8FE4898380E48B8386858A839F0110
:100AA0002C5E3F4F00E410E043E050E0BE016F5F7A
:100AB0007F4F848595850E942405F701828B0F90D6
:100AC0000F900F90DF91CF911F910F91FF90EF90BA
:100AD0000895CF93DF93EC010E9439058A8988231A
:100AE00041F08B89C80FD11D8C8990E0DF91CF91A7
:100AF00008958FEF9FEFFACFCF93DF93EC010E9421
:100B000039058A89882369F081508A8B8B8991E025
:100B1000980F9B8BC80FD11D8C8990E0DF91CF91EE
:100B200008958FEF9FEFFACFCF93DF93EC010E94F0
:100B300039058A8990E0DF91CF910895EF92FF9275
:100B40000F931F93CF93DF9300D0CDB7DEB7FC0197
:100B50002685211115C07C01178680E7898380E2F4
:100B60008A832089318900E210E042E050E0BE0132
:100B70006F5F7F4F848595850E942405F7018687E6
:100B80000F900F90DF91CF911F910F91FF90EF90F9
:100B90000895CF93DF93EC010E949E058E858823F4
:100BA00059F0EF8588899989E80FF92FF11D808127
:100BB00090E0DF91CF9108958FEF9FEFFACFCF9321
:100BC000DF93EC010E949E058E85882381F0815081
:100BD0008E8788899989EF8521E02E0F2F87E80F6E
:100BE000F92FF11D808190E0DF91CF9108958FEF73
:100BF0009FEFFACFCF93DF93EC010E949E058E8585
:100C000090E0DF91CF9108950F931F9310E000E0E3
:100C100030E020E00E9424051F910F9108950F936A
:100C20001F93CF93DF9300D0CDB7DEB78C01FC01CB
:100C30008189882369F087E7898386858A8342E0F2
:100C400050E0BE016F5F7F4F848595850E9404064A
:100C5000F801118A0F900F90DF91CF911F910F91A2
:100C60000895CF93DF9300D01F92CDB7DEB729E46C
:100C70002983FC0126852A836B8343E050E0BE0173
:100C80006F5F7F4F848595850E94040681E090E028
:100C90000F900F900F90DF91CF910895CF93DF9336
:100CA000FC01228921110BC0EC01438950E06589C8
:100CB0007689848595850E94040681E08B8BDF917F
:100CC000CF910895CF93DF9300D0CDB7DEB7DC018D
:100CD00052968C9152978823A1F080E589836A838C
:100CE00042E050E0BE016F5F7F4F1C968D919C915A
:100CF0000E94040681E090E00F900F90DF91CF9169
:100D0000089555968D919C9156975396EC915397D3
:100D100021E02E0F53962C935397E80FF92FF11DD6
:100D2000608353969C91539754968C915497981343
:100D3000E1CFED91FC9111970680F781E02DCD0177
:100D40000995D8CF8BEF0895CF93DF93FC012281D3
:100D500033812230310569F0EC01678D858D0E9469
:100D60001C0260E08C8D0E941C0282E090E09B835C
:100D70008A83DF91CF910895FF920F931F93CF93B2
:100D8000DF93EC01162FF42E0FB7F89460E08B8DF3
:100D90000E941C02898D9A8D612F6068DC01ED91A3
:100DA000FC910190F081E02D0995182F898D9A8D85
:100DB000DC01ED91FC910190F081E02D6F2D099502
:100DC00061E08B8D0E941C020FBF812FDF91CF91BC
:100DD0001F910F91FF900895CF93DF93EC0144E0B2
:100DE0006DE40E94BC0648E869E0CE01DF91CF9136
:100DF0000C94BC06CF93DF93FC0122813381213018
:100E0000310549F0EC0140E061E00E94BC0681E060
:100E100090E09B838A8381E0DF91CF910895CF9307
:100E2000DF93FC01228133812230310549F0EC014E
:100E300041E061E00E94BC0682E090E09B838A83EF
:100E4000DF91CF910895CF92DF92EF92FF92CF93EF
:100E5000DF93EC01CB01BA0120E034E244E759E42E
:100E60000E94D41620E034E244E752E40E942C1899
:100E70000E949E186B017C01A7016627772766E018
:100E8000CE010E94BC0677276F2D5E2D4D2D67E0A9
:100E9000CE010E94BC064C2D68E0CE010E94BC062B
:100EA00081E0DF91CF91FF90EF90DF90CF90089598
:100EB000CF92DF92EF92FF920F931F93CF93DF9326
:100EC0004C3F08F067C0142F072FF62EEC01E88185
:100ED000F9810484F585E02D0995CE010E940F0764
:100EE00040E06DE0CE010E94BC064A8560E0CE0184
:100EF0000E94BC064B8560E0CE010E94BC064C857A
:100F000060E0CE010E94BC064D8560E0CE010E94EB
:100F1000BC06EFB6F89460E08B8D0E941C02898DB0
:100F20009A8DDC01ED91FC910190F081E02D60E85B
:100F30000995CF2CD02E012F015068F0898D9A8D04
:100F4000F60161916F01DC01ED91FC910190F0815E
:100F5000E02D0995F1CF61E08B8D0E941C02EFBE60
:100F600044E0410F62E2CE010E94BC068A819B816F
:100F7000039771F043E061E0CE010E94BC0640E4BB
:100F800060E4CE010E94BC0683E090E09B838A83EC
:100F900081E001C080E0DF91CF911F910F91FF9020
:100FA000EF90DF90CF900895CF93DF93FC012281E3
:100FB000338123303105C9F0EC018281938104979C
:100FC00071F045E061E0CF010E94BC0640E060E4C2
:100FD000CE010E94BC0684E090E09B838A83C25EBF
:100FE000DE4F8881DF91CF91089580E0FBCF0F9392
:100FF0001F93CF93DF93EC01162F0FB7F89460E0A7
:101000008B8D0E941C02898D9A8DDC01ED91FC91E3
:101010000190F081E02D612F0995898D9A8DDC0179
:10102000ED91FC910190F081E02D60E00995182F81
:1010300061E08B8D0E941C020FBF812FDF91CF9149
:101040001F910F910895DF92EF92FF920F931F93DC
:10105000CF93DF93EC0162E10E94F7072A813B8185
:1010600024303105A1F4982F907A89F088899989E4
:101070000196998B888B4FEF62E1CE01DF91CF9182
:101080001F910F91FF90EF90DF900C94BC062A8186
:101090003B812430310511F486FD0DC02A813B814E
:1010A0002330310541F783FFE6CF8C899D89019676
:1010B0009D8B8C8B74C063E1CE010E94F707082FD3
:1010C00060E1CE010E94F707482F6DE0CE010E943B
:1010D000BC06DFB6F89460E08B8D0E941C02898DFF
:1010E0009A8DDC01ED91FC910190F081E02D60E0A2
:1010F00009957E01BFE1EB0EF11C102F115070F02D
:10110000898D9A8DDC01ED91FC910190F081E02DAB
:1011100060E00995F70181937F01F0CF61E08B8D4D
:101120000E941C02DFBE0E8F4FEF62E1CE010E94D3
:10113000BC066AE1CE010E94F70789588E8769E1F3
:10114000CE010E94F70790E0959587959595879534
:101150009195819591098F878E8DFE01E25EFE4FFC
:101160008430C8F08F8D8E8388A18F8389A1888772
:101170008AA189878D81811107C09E818C819817F2
:1011800019F08E818F3F39F48A899B8901969B8B58
:101190008A8B81E080838081882309F46CCFCE0123
:1011A0000E940F0768CF80917E0390917F03009784
:1011B00011F00C942308089580917C0390917D0395
:1011C000009711F00C942308089580917A03909170
:1011D0007B03009711F00C9423080895CF93DF93BD
:1011E000EC01898D9A8DDC01ED91FC910680F781EF
:1011F000E02D099561E08B8D0E944A0261E08B8DA4
:101200000E941C0264E670E080E090E00E94A00270
:1012100081E0DF91CF9108959FB7F8948091780392
:10122000882319F08150809378038091780381118D
:1012300003C08CB58F7B8CBD9FBF08958CB58F7715
:101240008CBD08958CB580688CBD08956EBD00007E
:101250000DB407FEFDCF8EB508959CB59C7F282F59
:101260002370922B9CBD9DB59E7F86958695892B7C
:101270008DBD0895CF93DF93FC0126813781211521
:10128000310509F463C02130310509F45BC0223017
:10129000310509F459C02330310509F057C02CE05D
:1012A0009CB5937F922B9CBD84819581019709F019
:1012B0004FC08CB580628CBD828193810197C1E063
:1012C0008430910520F48D599E4FFC01C0818C2FF4
:1012D0000E942D09DFB7F89480917803811127C00F
:1012E000EBEAF0E08491EFEBF0E09491E82FF0E08E
:1012F000EE0FFF1FE357FF4FA591B491EC91E92347
:1013000021F461E08AE00E941C0261E08AE00E9410
:101310004A028CB580618CBD8CB580648CBD61E067
:101320008DE00E944A0261E08BE00E944A028091B7
:1013300078038F5F80937803DFBF8C2FDF91CF918D
:101340000C942D0924E0ACCF28E0AACF20E0A8CF50
:101350008CB58F7DB0CFFC01738362830895FC014F
:10136000778366830895FC017583648308950895E7
:1013700080E00895FC0181850895FC018085089531
:10138000FC0187810895FC01868108954095FC0148
:1013900025854223642B65870895FC0164870895A1
:1013A000FC0163870895FC0162870895FC01648352
:1013B0000895FC01658308958F929F92AF92BF922A
:1013C000CF92DF92EF92FF92CF93DF93EC016B010C
:1013D0000E94D3024B015C01F12CE12C0E94D3024C
:1013E000681979098A099B096C157D058E059F0589
:1013F00080F48A819B81039789F381E0DF91CF910B
:10140000FF90EF90DF90CF90BF90AF909F908F9024
:10141000089580E0F3CFFC01228133812330310530
:10142000D1F381E008958F929F92AF92BF92CF92B5
:10143000DF92EF92FF92CF93DF93EC016B010E945A
:10144000D3024B015C01F12CE12C0E94D3026819FC
:1014500079098A099B096C157D058E059F05A0F405
:10146000E881F9810280F381E02DCE01099588237E
:1014700061F3DF91CF91FF90EF90DF90CF90BF901D
:10148000AF909F908F90089580E0F3CFCF93DF933C
:10149000EC01E881F9810280F381E02DCE0109950C
:1014A0008823B9F3DF91CF91089581E0089590E00A
:1014B00080E00895FC0101900020E9F73197AF0129
:1014C000481B590BBC0181ED94E00C94C5048F922C
:1014D0009F92AF92BF920F931F93CF93DF93CDB79D
:1014E000DEB7A1970FB6F894DEBF0FBECDBF19A22D
:1014F000423008F44AE08E010F5D1F4F842E912C7C
:10150000B12CA12CA50194010E94FB17E62FB90173
:10151000CA01EA30F4F4E05DD801EE938D01232B8B
:10152000242B252B79F790E080E0109719F0CD015E
:101530000E945A0AA1960FB6F894DEBF0FBECDBF27
:10154000DF91CF911F910F91BF90AF909F908F909F
:101550000895E95CE1CFCF93DF930E945A0AEC0132
:1015600081EF91E00E945A0A8C0F9D1FDF91CF916D
:101570000895CF92DF92EF92FF92CF93DF936C01A9
:10158000990FEE08FF08F7FE1FC06DE281ED94E0B1
:101590000E94BB00EC0166277727CB016C197D09FF
:1015A0008E099F094AE00E94670AC80FD91F81EF80
:1015B00091E00E945A0A8C0F9D1FDF91CF91FF90FE
:1015C000EF90DF90CF9008954AE0C701B6010E94E6
:1015D000670AEC01ECCFFC0180819181009711F04A
:1015E0000C946F1908950E94B51A0F931F93CF930F
:1015F000DF93EC0188819981009759F02A813B8122
:101600002617370730F081E0DF91CF911F910F91BE
:1016100008958B016F5F7F4F0E94F819009759F072
:10162000998388831B830A832C813D81232B59F75F
:10163000FC011082E8CF80E0E7CFEF92FF920F939A
:101640001F93CF93DF93EC017B01FB0101900020FE
:10165000E9F731978F01061B170BB8010E94F50AB5
:1016600028813981811113C02115310519F0C90173
:101670000E946F19198218821D821C821B821A8295
:10168000DF91CF911F910F91FF90EF9008951D83EF
:101690000C83B701C901DF91CF911F910F91FF908A
:1016A000EF900C94C31AAF92BF92CF92DF92EF9259
:1016B000FF920F931F93CF93DF936C015B01FC01AB
:1016C000C785D0890C811D810F5F1F4FB801CE01E6
:1016D0000E94F50A882361F0288139818C819D81DF
:1016E00064EF71E0820F931F0E94C31A1D830C8365
:1016F000F501E080F180E114F104E9F00481158145
:1017000001151105C1F0F601C785D0898C819D8135
:10171000080F191FB801CE010E94F50A882359F05D
:10172000288139818C819D81B701820F931F0E948E
:10173000C31A1D830C83DF91CF911F910F91FF90EE
:10174000EF90DF90CF90BF90AF900895CF92DF924F
:10175000EF92FF920F931F93CF93DF93CDB7DEB736
:10176000C256D1090FB6F894DEBF0FBECDBF86EFCB
:1017700091E00E94AB0A1C821B8288EE93E0A0E0FD
:10178000B0E08D839E83AF83B8878BE791E09A8327
:10179000898385E895E09E878D871A8A1B8A1C8A33
:1017A0006D961FAE1EAE6D976F961FAE1EAE6F97F5
:1017B000A1961FAE1EAEA19767E774E0CE01855AD1
:1017C0009F4F0E941D0B67961FAE1EAE67976996CE
:1017D0001FAE1EAE69976B961FAE1EAE6B976FEF76
:1017E00071E0CE018B5A9F4F0E941D0BCE010196D6
:1017F0000E940F0686E090E00E94D3188C01FC0145
:101800001182108213821282158214826796EEACC6
:10181000FFAC6797E114F104C9F06B96CEACDFAC76
:101820006B97B6010E94F50AF80120813181811180
:101830008FC02115310519F0C9010E946F19F801F7
:10184000118210821582148213821282198B088BE6
:10185000CE018B5A9F4F0E94EB0A67961FAE1EAEB9
:10186000679769961FAE1EAE69976B961FAE1EAE48
:101870006B9768E072E0CE018B5A9F4F0E941D0B60
:10188000BE016B5A7F4FCE0101960E94530BCE01D1
:101890008B5A9F4F0E94EB0ABE01655A7F4FCE01C3
:1018A00001960E94530B82E5A2968FAFA297E8891A
:1018B000F989048115812081318142E0C42ED12C27
:1018C000CE018B5A9F4F7C0141E050E0BE016F5921
:1018D0007F4F8D859E850E94490367968FAD6797E0
:1018E0008F87088919890115110531F0C8010E94F7
:1018F000EB0AC8010E946F19198A188A66968FAD83
:101900006697811102C081E08A8B32E7F32E6696DA
:10191000FFAE66978F8567968FAF679701E010E0FF
:101920009E012F593F4F42E050E0BE016B5A7F4F5E
:101930008D859E850E942405A2968FADA297813049
:1019400071F464E670E080E090E00E94A002DFCFD6
:10195000D582C482B701C9010E94C31A77CF87E537
:10196000A2968FAFA2978F85A3968FAFA39702E021
:1019700010E09E012B5A3F4F42E050E0BE016F59EC
:101980007F4F8D859E850E94240566968FAD669754
:1019900090E0982F882767960FAD6797080F192F4B
:1019A000111DCE01855A9F4F0E94EB0A8BE092E0F9
:1019B0000E945A0AC8010E94B90A81ED94E00E946F
:1019C0004E06A8958BE791E09A838983CE01019614
:1019D0000E940F06C801CE59DF4F0FB6F894DEBF44
:1019E0000FBECDBFDF91CF911F910F91FF90EF9070
:1019F000DF90CF900895CF92DF92EF92FF920F93F6
:101A00001F93CF93DF93EC017B018A01E881F98179
:101A10000280F381E02D0995D82E882329F1E11465
:101A2000F104D1F001151105B9F0CFB6F8948E8DFF
:101A30008350990BF8012081281719061CF08E8D10
:101A400084508083F801408150E0BE016D5D7F4F7E
:101A5000C7010E94BA1ACFBE8FB7F894FE01E25EAA
:101A6000FE4F10821E8E8FBF8D2DDF91CF911F9163
:101A70000F91FF90EF90DF90CF900895EF92FF923B
:101A80000F931F93CF93DF9300D01F92CDB7DEB794
:101A90008C010E94EE08E82E81110CC0E12C8E2DE5
:101AA0000F900F900F90DF91CF911F910F91FF90AA
:101AB000EF900895F801848D823009F475C0FF24F9
:101AC000F394833059F740E861E0C8010E94BC06F6
:101AD0006AE070E080E090E00E94A00261E0C8014E
:101AE0000E94F7078038D1F660E0F801848D0E94EB
:101AF0004A0280917903843088F691E0980F9093A0
:101B00007903F801858FE82FF0E0EE0FFF1FE6580C
:101B1000FC4F1183008365EE78E0882349F06CED7B
:101B200078E0813029F0823009F0B8CF63ED78E0B9
:101B30008F2D0E94A30040E06EE0C8010E94BC0609
:101B400040E06FE0C8010E94BC06C8010E940F0778
:101B500043E050E065E770E0CE0101960E94CB16AD
:101B600049816DE1C8010E94BC064A816EE1C8014D
:101B70000E94BC064B8166E2C8010E94BC0640E0A0
:101B800060E2C8010E94BC0648E061E2C8010E9410
:101B9000BC0640E050E069E574E4C8010E942307F8
:101BA000C8010E94EC067BCFF12C8DCF8F929F92C3
:101BB000AF92BF92CF92DF92EF92FF92CF93DF93DB
:101BC000FC012789308D232BB9F1EC010E94D3024F
:101BD0004B015C0189E0C82ED12CE12CF12CE8816D
:101BE000F9810488F589E02DCE010995882321F13A
:101BF0000E94D302AB01BC01481959096A097B094B
:101C00008F89988DB0E0A0E084179507A607B707E5
:101C1000F8F00E947316A70196010E9492179B018B
:101C2000AC012F5F3F4F4F4F5F4FA4E6B0E00E94E3
:101C3000B1170E94A002D3CF81E0DF91CF91FF9036
:101C4000EF90DF90CF90BF90AF909F908F900895CE
:101C500080E0F3CF1F920F920FB60F9211242F93B3
:101C60003F934F935F936F937F938F939F93AF9324
:101C7000BF93EF93FF9388EE94E00E946401FF917D
:101C8000EF91BF91AF919F918F917F916F915F91F4
:101C90004F913F912F910F900FBE0F901F9018956D
:101CA0001F920F920FB60F9211242F938F939F9331
:101CB000EF93FF93E091F804F091F9048081E091B3
:101CC000FE04F091FF0482FD1BC09081809101050C
:101CD0008F5F8F7320910205821741F0E09101051B
:101CE000F0E0E851FB4F958F80930105FF91EF9154
:101CF0009F918F912F910F900FBE0F901F9018956D
:101D00008081F4CF1F920F920FB60F9211242F9360
:101D10003F938F939F93AF93BF9380918103909153
:101D20008203A0918303B09184033091800323E068
:101D3000230F2D3758F50196A11DB11D2093800367
:101D40008093810390938203A0938303B0938403D1
:101D50008091850390918603A0918703B0918803B9
:101D60000196A11DB11D8093850390938603A093D6
:101D70008703B0938803BF91AF919F918F913F915B
:101D80002F910F900FBE0F901F90189526E8230FEC
:101D90000296A11DB11DD2CF1F920F920FB60F92C6
:101DA00011242F933F934F935F936F937F938F9360
:101DB0009F93AF93BF93EF93FF93E0910201F09154
:101DC00003010995FF91EF91BF91AF919F918F9181
:101DD0007F916F915F914F913F912F910F900FBE27
:101DE0000F901F9018951F920F920FB60F9211240B
:101DF0002F933F934F935F936F937F938F939F9313
:101E0000AF93BF93EF93FF93E0910001F091010135
:101E10000995FF91EF91BF91AF919F918F917F9124
:101E20006F915F914F913F912F910F900FBE0F9047
:101E30001F9018951F920F920FB60F9211242F9397
:101E40003F934F935F936F937F938F939F93AF9342
:101E5000BF93CF93DF93EF93FF9380910200909114
:101E60000300049709F0DEC020911B0030E0F90167
:101E7000E753FF4F8491F901EB54FF4FD491F901DF
:101E8000EF55FF4FC491CC2379F081110E94F301EB
:101E9000EC2FF0E0EE0FFF1FE859FF4FA591B49132
:101EA000EC91ED2381E009F480E0817020911E0027
:101EB000982F9227821719F083B18F5F83B982B16F
:101EC0008917F1F184B12DE1803508F42BE084B15C
:101ED000820F84B992B984B1803A08F46EC086B199
:101EE00097B19695879597B986B983B1853028F0D3
:101EF00086B197B1986097B986B984B1805A84B990
:101F000013B885B1882309F482C088B18F5F88B97E
:101F10008C3008F452C086B197B1982F9F73892FE7
:101F200086958695887028E0280F281769F0E82F95
:101F3000F0E0E959FE4F3081931739F08F5FF5CF0C
:101F400084B18C5E84B9C7CF80E090E1899F900115
:101F5000112486B197B136E0969587953A95E1F7C9
:101F6000482F9595879595958795887098E0980F57
:101F7000981749F0E82FF0E0E959FE4F50814517D6
:101F800019F08F5FF5CF80E0822B90916D00911159
:101F900027C080936C0090916C00973020F0909156
:101FA0006C009434E8F015B8809110009091110005
:101FB00001969093110080931000FF91EF91DF91B3
:101FC000CF91BF91AF919F918F917F916F915F91D1
:101FD0004F913F912F910F900FBE0F901F9018952A
:101FE000E0916D0091E09E0F90936D00F0E081A76D
:101FF00090916D0080916C00981738F015B881E0D1
:1020000080B990E080E00E94A40618B8D6CF86B1CF
:1020100097B188339B4089F681E085B918B8109252
:102020006D00CBCF8091020090910300039729F6B9
:102030008091700091E0980F90937000811113C00F
:10204000E0916E008091FF00E817A8F090E080E03A
:102050000E94A4068091140090911500019690931F
:1020600015008093140080917000883008F4A5CF8B
:1020700010927000A2CFF0E0EF58FF4F608170E047
:1020800080916F0091E0980F90936F0002C075955A
:1020900067958A95E2F7617080911C000E941C028E
:1020A00080916F008630F8F210926F0080916E0080
:1020B0008F5F80936E00D7CFCF93DF93E8EEF4E08D
:1020C0001382128248EE53E060E070E0448355834F
:1020D000668377838DE891E09183808385EC90E03F
:1020E0009587848784EC90E09787868780EC90E0E2
:1020F000918B808B81EC90E0938B828B82EC90E0D3
:10210000958B848B86EC90E0978B868B118E128E4C
:10211000138E148EA1EDB4E013961C921E921297AA
:1021200014964D935D936D937C9317978FE991E08F
:1021300011969C938E93C5E8D5E01D96DC93CE93C3
:102140001C971E961C921E971F961C921F975196C5
:102150001C921E92509781E052968C931882FE83B7
:10216000ED831F821886FA87E987A0E9B5E0139608
:102170001C921E92129715961C921E9214971796F7
:102180001C921E92169781EB91E011969C938E9370
:10219000E8E9F5E0138212828FEF848382878387D8
:1021A00014861586118A108A138A128A158A148A4F
:1021B000108E178AB28FA18F9AE0938F25EC31E0B1
:1021C000318320831092B60692E0948F858FDF9141
:1021D000CF910895CF93DF93CDB7DEB7AD970FB60C
:1021E000F894DEBF0FBECDBF789484B5826084BD05
:1021F00084B5816084BD85B5826085BD85B581600B
:1022000085BD80916E00816080936E001092810088
:102210008091810082608093810080918100816043
:102220008093810080918000816080938000809104
:10223000B10084608093B1008091B0008160809390
:10224000B00080917A00846080937A0080917A0057
:10225000826080937A0080917A00816080937A0016
:1022600080917A00806880937A001092C10088E1A2
:1022700099E20FB6F894A895809360000FBE9093F2
:102280006000E0918E05F0918F05A089B18982E010
:102290008C93A485B5851C92A685B78580E18C9327
:1022A000108EA489B58986E08C93A289B3898C911C
:1022B00080618C93A289B3898C9188608C93A28968
:1022C000B3898C9180688C930288F389E02D80819A
:1022D0008F7D808380918C058111B4C081E08093D3
:1022E0008C0585E895E00E94E10268EE73E080E0ED
:1022F00090E00E94A00280918A0590918B05DC01FC
:10230000ED91FC910084F185E02D099518161906D0
:1023100044F3FF24F39452E3E52E85E0E9E5F1E090
:10232000DE015F9601900D928A95E1F7F0928D059E
:1023300045E050E0BE01615E7F4F85E895E00E9478
:10234000040663E080918A0590918B050E94BB0092
:102350006AEF70E080E090E00E94A0026BEE70E017
:1023600080918A0590918B050E94C2006AEF70E00F
:1023700080E090E00E94A00269EE70E080918A0502
:1023800090918B050E94C20064EF71E080E090E0C4
:102390000E94A0026DED70E080918A0590918B05FE
:1023A0000E94C20064EF71E080E090E00E94A00211
:1023B00085E895E00E94E10285E0EEE5F1E0DE01CE
:1023C000119601900D928A95E1F7E0928D0504E057
:1023D00010E09E012C5D3F4F45E050E0BE016F5F75
:1023E0007F4F85E895E00E9424058F3F980739F4D8
:1023F00068EE73E080E090E00E94A0028ECF2CA1F6
:102400002111FFCF049709F0B0C02DA12053330B49
:1024100044E6429FC001439F900D11242EA1EAE0A3
:102420002E9F800D911D1124805E91402FA120537D
:10243000330B820F931F909387058093860582E369
:1024400080938D0588E995E00E943E0D811104C0BE
:1024500083E192E00E94AB0AA89540E050E069E574
:1024600074E488E995E00E94230788E995E00E94DA
:10247000EC06A8958091750490917604892B09F05B
:1024800086C18FE192E00E94AB0A82E48F8F83E4E1
:1024900088A383E089A38AE38AA310928C03109215
:1024A0008B038AE5D82E9AE4C92E21E4B22E33E0BC
:1024B000A32E45EAE42E43E0F42E80918B03909105
:1024C0008C03883C91050CF0AFC083E392E00E943E
:1024D000AB0AA89544E0BE01615E7F4F88E995E0B4
:1024E0000E945807A89588E995E00E940B0AA895D4
:1024F00064EF71E088E995E00E94130A882309F4EB
:102500007DC0A8958AE492E00E94AB0A10927704FD
:10251000DCA2AE014C5D5F4F67E774E088E995E0AF
:102520000E94FB0C8823B9F0A895809177048A3427
:1025300091F480917804823571F48091790483302C
:1025400051F480917A0405E010E0811111C08CEF04
:1025500092E00E94AB0A80918B0390918C030196CC
:1025600090938C0380938B03A8CF84E690E063CF95
:10257000C982BA82AB8280917A048C8382E692E02F
:102580000E945A0A60917A0470E090E080E04AE08C
:102590000E94670A81EF91E00E945A0AA89544E0E0
:1025A000BE016F5F7F4F88E995E00E945807A895AC
:1025B00088E995E00E940B0AA89510928A03109270
:1025C000890364EF71E080E090E00E94A002015076
:1025D000110971F620917A04422F50E0E1E9F3E00D
:1025E000EE16FF0609F4E9C28191082E000C990B42
:1025F00084179507A9F78BE792E0ABCF8091890309
:1026000090918A03019690938A038093890340975F
:102610000CF4A1CF21E030E03093760420937504D0
:1026200010928A0310928903A89564E670E080E016
:1026300090E00E94A00280E992E00E94AB0A0E9412
:10264000D302609371047093720480937304909327
:102650007404A8950E94D302009171041091720431
:102660002091730430917404601B710B820B930BE7
:10267000613A7B4B8D40910508F492C28AE393E066
:102680000E94AB0A10927604109275048AE5E7E77F
:10269000F4E011928A95E9F795E4E92E94E0F92E99
:1026A0000DE114E025EFA22E23E0B22E3DECC32E67
:1026B00033E0D32E45EA642E43E0742E51E9452ED3
:1026C00053E0552E65E2262E61E0362E20916D04F2
:1026D00030916E04C20181599340821793070CF028
:1026E00038C2D7019C901196AC91B2E0EB0EF11C70
:1026F000F801708181800E5F1F4FF501508161816B
:10270000F2E0AF0EB11CF60130814181F2E0CF0E54
:10271000D11CF30190812181F2E06F0E711CF20156
:1027200081912F01B0917004BF93B0916F04BF935A
:10273000AF939F928F927F936F935F934F933F934B
:102740002F939F93282F082E000C330B3F938F93CA
:102750003F922F9227E734E03F932F930E94CA1AAB
:1027600087E7882E84E0982E0FB6F894DEBF0FBE60
:10277000CDBFA1EDB4E0A815B90509F4E3C1F4019A
:1027800061914F0181ED94E00E94BB00F2CF8091F6
:102790006F049091700401969093700480936F047D
:1027A00011E9E12E13E0F12E0DEC202E03E0302E86
:1027B000D12CC12C80916D0490916E04C816D9065D
:1027C0004CF4A895D7018C91811110C089E992E051
:1027D0000E94AB0AA8958BE293E00E945A0A80916E
:1027E0006D0490916E040E94B90A34CF8601000FE7
:1027F000111FF801EB5BFB4FFBA7EAA79801235ED3
:102800003B4F3DA72CA783E090E099A788A794E4CD
:102810009F8FA2E5A8A3B3E0B9A3F70180818AA3A3
:102820008BEB92E00E945A0A6AA170E090E080E08F
:102830004AE00E94670AA89544E0BE01615E7F4FAE
:1028400088E995E00E945807A89588E995E00E94DC
:102850000B0AA89560ED77E088E995E00E94130ADD
:10286000882309F443C1A89586ED92E00E94AB0A43
:10287000A7E7B4E0EAE51D92EA95E9F7FAE5FCA3DB
:10288000A895AE014C5D5F4F67E774E088E995E07D
:102890000E94FB0C882309F41FC1A8951092900395
:1028A00010928F032CA130E0290142E0441A510814
:1028B000052C000C6608770890E080E04114510474
:1028C0006104710421F1E7E7F4E0812C912C5401BB
:1028D00090E080E084149504A604B704C0F441910C
:1028E000942750E040E0BC01880F991F77FF04C097
:1028F00061E2862760E196274F5F5F4F48305105C0
:1029000091F7AFEF8A1A9A0AAA0ABA0AE3CFF90135
:10291000EA58FB4F40812B583B4FF9012081342F5F
:102920002817390709F088C021E030E030938E0382
:1029300020938D038CEE92E00E94AB0A80918D0370
:1029400090918E03019709F0B3C010928E031092FC
:102950008D0380917704843409F098C080917804C5
:10296000833509F093C080917904833009F08EC0DB
:1029700090917A048AA1981389C0A8959091A7058F
:102980008091A6052CA11F922F93292F092E000CB0
:10299000330B3F939F93282F082E000C330B3F934C
:1029A0008F938EE091E09F938F93E1E0F0E0EC0F46
:1029B000FD1FFF93EF930E94CA1A5C019090A70538
:1029C00084EF92E00E945A0A892D990C990B0E947B
:1029D000B90AA89587E68093770481E68093780406
:1029E00099E69093790480937A0480E280937B0443
:1029F0002CA130E0A901425051090FB6F894DEBF76
:102A00000FBECDBF90E080E08A159B05D4F4BA01DB
:102A1000680F791F6A357105A4F4FC01E20FF31FFA
:102A2000EB58FB4FA1E0B0E0AC0FBD1FA80FB91FE2
:102A30006C9160830196E8CF10928E0310928D0303
:102A40007DCFA895F801EB55FC4F808191810196CF
:102A5000918380830E94A60B8A3F910541F4F8017F
:102A6000EB50FC4F80819181019691838083A895E2
:102A70001092900310928F033FEFC31AD30A4FEFC7
:102A8000E41AF40A62E0260E311C94CEACA5BDA572
:102A90008D919C91119701968D939C9380918F03BA
:102AA0009091900301969093900380938F0314C0AC
:102AB000EAA5FBA580819181019691838083809115
:102AC0008F039091900301969093900380938F03CE
:102AD00088EF92E00E94AB0A28A539A52150310960
:102AE00039A728A7232B09F092CEC6CFD1018D910B
:102AF0009C91119701968D939C9380918F03909157
:102B0000900301968330910571F610929003109214
:102B10008F0382E093E00E945A0AF701608181ED01
:102B200094E00E94BB0081EF91E00E945A0A8DE17F
:102B300093E00E945A0A80916D0490916E040E9465
:102B4000B90ACACF81EF91E00E945A0A0E94A60BEF
:102B5000BDCD1092700410926F0488E2EDE1F4E0B4
:102B6000DF01282F1D922A95E9F7EDECF3E0DF0154
:102B7000282F1D922A95E9F7E5EAF3E0DF01282FD7
:102B80001D922A95E9F7E5EFF3E0DF01282F1D926A
:102B90002A95E9F7E5E4F4E0DF011D928A95E9F76B
:102BA00080E090E0892B09F465CC0E9450018823D5
:102BB00009F460CC0E9400005DCC80916D0490917E
:102BC0006E04FC01EF56FC4F2083019690936E0437
:102BD00080936D0488E593E00E945A0A60917A041C
:102BE00070E090E080E04AE00E94670A81EF91E0A7
:102BF0000E945A0A87E693E00E945A0A80916D0467
:102C000090916E040E94B90A10928A03109289036F
:102C1000A2CC8FE991E09093D2048093D10480916B
:102C2000E30481110BC08091E6049091E7040097C2
:102C300011F00E946F1981E08093E3048091E10418
:102C40009091E204009711F00C946F1908958F92FF
:102C50009F92AF92BF92CF92DF92EF92FF92CF936B
:102C6000DF93EC01688179818A819B81611571050F
:102C70008105910521F464E279ED8BE597E02DE182
:102C800033EF41E050E00E94921749015A019B0145
:102C9000AC01A7EAB1E40E94B1176B017C01ACEE74
:102CA000B4EFA50194010E94BF17C60ED71EE81EFF
:102CB000F91EF7FE06C081E0C81AD108E10880E8D5
:102CC000F80AC882D982EA82FB82C701B6019F77DF
:102CD000DF91CF91FF90EF90DF90CF90BF90AF90BA
:102CE0009F908F9008958F929F92AF92BF92CF92B4
:102CF000DF92EF92FF926091040170910501809143
:102D0000060190910701611571058105910521F476
:102D100064E279ED8BE597E02DE133EF41E050E09F
:102D20000E94921749015A019B01AC01A7EAB1E444
:102D30000E94B1176B017C01ACEEB4EFA5019401C8
:102D40000E94BF17C60ED71EE81EF91EF7FE06C06A
:102D500081E0C81AD108E10880E8F80AC0920401AD
:102D6000D0920501E0920601F0920701C701B60179
:102D70009F77FF90EF90DF90CF90BF90AF909F90A4
:102D80008F9008956093040170930501809306016C
:102D9000909307010895FB01DC0102C005900D929C
:102DA00041505040D8F708950E94E7160C945817E8
:102DB0000E944A1738F00E94511720F0952311F015
:102DC0000C9441170C94471711240C948C170E94F3
:102DD000691770F3959FC1F3950F50E0551F629FDF
:102DE000F001729FBB27F00DB11D639FAA27F00D64
:102DF000B11DAA1F649F6627B00DA11D661F829F8B
:102E00002227B00DA11D621F739FB00DA11D621F6F
:102E1000839FA00D611D221F749F3327A00D611D8C
:102E2000231F849F600D211D822F762F6A2F11246E
:102E30009F5750409AF0F1F088234AF0EE0FFF1FA1
:102E4000BB1F661F771F881F91505040A9F79E3FF8
:102E5000510580F00C9441170C948C175F3FE4F3FC
:102E6000983ED4F3869577956795B795F795E7954E
:102E70009F5FC1F7FE2B880F911D9695879597F957
:102E8000089597F99F6780E870E060E008959FEFEC
:102E900080EC089500240A941616170618060906F1
:102EA000089500240A9412161306140605060895C0
:102EB000092E0394000C11F4882352F0BB0F40F448
:102EC000BF2B11F460FF04C06F5F7F4F8F4F9F4F88
:102ED000089557FD9058440F551F59F05F3F71F00A
:102EE0004795880F97FB991F61F09F3F79F0879571
:102EF0000895121613061406551FF2CF4695F1DFFA
:102F000008C0161617061806991FF1CF8695710589
:102F1000610508940895E894BB2766277727CB01BD
:102F200097F90895052E97FB1EF400940E94A917A7
:102F300057FD07D00E94FB1707FC03D04EF40C94FA
:102F4000A91750954095309521953F4F4F4F5F4FB2
:102F5000089590958095709561957F4F8F4F9F4F05
:102F600008950E941D18A59F900DB49F900DA49FD9
:102F7000800D911D11240895B7FF0C94B1170E9484
:102F8000B117821B930B08952F923F924F925F923D
:102F90006F927F928F929F92AF92BF92CF92DF9269
:102FA000EF92FF920F931F93CF93DF93CDB7DEB7CE
:102FB000CA1BDB0B0FB6F894DEBF0FBECDBF099462
:102FC0002A88398848885F846E847D848C849B84B9
:102FD000AA84B984C884DF80EE80FD800C811B81C7
:102FE000AA81B981CE0FD11D0FB6F894DEBF0FBEF6
:102FF000CDBFED010895A1E21A2EAA1BBB1BFD0156
:103000000DC0AA1FBB1FEE1FFF1FA217B307E407C7
:10301000F50720F0A21BB30BE40BF50B661F771F1F
:10302000881F991F1A9469F76095709580959095FF
:103030009B01AC01BD01CF010895A29FB001B39FD8
:10304000C001A39F700D811D1124911DB29F700DB1
:10305000811D1124911D08950E9440180C94581749
:103060000E94511758F00E944A1740F029F45F3F20
:1030700029F00C94411751110C948C170C9447179C
:103080000E94691768F39923B1F3552391F3951BB7
:10309000550BBB27AA2762177307840738F09F5F79
:1030A0005F4F220F331F441FAA1FA9F335D00E2EE6
:1030B0003AF0E0E832D091505040E695001CCAF753
:1030C0002BD0FE2F29D0660F771F881FBB1F261716
:1030D00037074807AB07B0E809F0BB0B802DBF01ED
:1030E000FF2793585F4F3AF09E3F510578F00C94BC
:1030F00041170C948C175F3FE4F3983ED4F3869508
:1031000077956795B795F7959F5FC9F7880F911DDC
:103110009695879597F90895E1E0660F771F881FC8
:10312000BB1F621773078407BA0720F0621B730B7B
:10313000840BBA0BEE1F88F7E09508950E94711773
:1031400088F09F5798F0B92F9927B751B0F0E1F068
:10315000660F771F881F991F1AF0BA95C9F714C018
:10316000B13091F00E948B17B1E008950C948B1749
:10317000672F782F8827B85F39F0B93FCCF3869551
:1031800077956795B395D9F73EF4909580957095AE
:1031900061957F4F8F4F9F4F0895EE0FFF1F059052
:1031A000F491E02D09940F931F93CF93DF93823016
:1031B000910510F482E090E0E091B906F091BA0632
:1031C00030E020E0B0E0A0E0309799F4211531051F
:1031D00009F44AC0281B390B24303105D8F58A81FF
:1031E0009B816115710589F1FB0193838283FE0147
:1031F00011C0408151810281138148175907E0F0C5
:103200004817590799F4109761F012960C9312978A
:1032100013961C933296CF01DF91CF911F910F919E
:1032200008950093B9061093BA06F4CF211531051D
:1032300051F04217530738F0A901DB019A01BD0193
:10324000DF01F801C1CFEF01F9CF9093BA06809367
:10325000B906CDCFFE01E20FF31F81939193225067
:10326000310939832883D7CF2091B7063091B8062A
:10327000232B41F420910A0130910B013093B806C1
:103280002093B706209108013091090121153105DD
:1032900041F42DB73EB740910C0150910D01241B14
:1032A000350BE091B706F091B806E217F307A0F4EA
:1032B0002E1B3F0B2817390778F0AC014E5F5F4F8C
:1032C0002417350748F04E0F5F1F5093B806409300
:1032D000B706819391939FCFF0E0E0E09CCFCF932E
:1032E000DF930097E9F0FC01329713821282A091DC
:1032F000B906B091BA06ED0130E020E01097A1F4D4
:1033000020813181820F931F2091B7063091B8063A
:103310002817390709F061C0F093B806E093B706A3
:10332000DF91CF910895EA01CE17DF07E8F54A81D2
:103330005B819E0141155105B1F7E901FB83EA83E9
:1033400049915991C40FD51FEC17FD0761F4808195
:1033500091810296840F951FE90199838883828168
:1033600093819B838A83F0E0E0E012968D919C919B
:1033700013970097B9F52D913C911197CD010296C5
:10338000820F931F2091B7063091B806281739078E
:1033900039F6309751F51092BA061092B906B093EB
:1033A000B806A093B706BCCFD383C28340815181B6
:1033B000840F951FC817D90761F44E5F5F4F88814E
:1033C0009981480F591F518340838A819B81938340
:1033D00082832115310509F0B0CFF093BA06E0934E
:1033E000B9069ECFFD01DC01C0CF13821282D7CF78
:1033F000B0E0A0E0EEEFF9E10C94C6178C01009765
:1034000051F4CB010E94D3188C01C801CDB7DEB7AF
:10341000E0E10C94E217FC01E60FF71F9C0122503B
:103420003109E217F30708F49DC0D901CD91DC9171
:103430001197C617D70798F0C530D10530F3CE01E4
:1034400004978617970708F3C61BD70B2297C193DB
:10345000D1936D937C93CF010E946F19D6CF5B01FE
:10346000AC1ABD0A4C018C0E9D1EA091B906B091FC
:10347000BA06512C412CF12CE12C109731F580919A
:10348000B7069091B8068815990509F05CC04616F4
:10349000570608F058C080910801909109010097E3
:1034A00041F48DB79EB740910C0150910D01841BE2
:1034B000950BE817F90708F055C0F093B806E093AC
:1034C000B706F90171836083A0CF8D919C9111970C
:1034D00012966C90129713967C901397A815B905C5
:1034E00059F56C0142E0C40ED11CCA14DB0420F172
:1034F000AC014A195B09DA011296159780F06282D5
:10350000738251834083D9016D937C93E114F1045C
:1035100071F0D7011396FC93EE93129776CF229613
:103520008C0F9D1FF90191838083F301EFCFF093FE
:10353000BA06E093B90669CF4816590608F42C017B
:103540007D01D3019ACFCB010E94D3187C01009753
:1035500049F0AE01B8010E94BA1AC8010E946F1961
:10356000870153CF10E000E050CF81E090E0F89465
:103570000C946B1DFB01DC0102C001900D924150C7
:103580005040D8F70895FB01DC0101900D92002016
:10359000E1F70895AEE0B0E0E0EDFAE10C94D21767
:1035A0000D891E8986E08C831A8309838FEF9FE73C
:1035B0009E838D83AE01475E5F4F6F89788DCE010C
:1035C00001960E94ED1A2F813885020F131FF80112
:1035D00010822E96E4E00C94EE17ABE0B0E0E3EF3F
:1035E000FAE10C94C4177C013B018A01FC011782AB
:1035F0001682838181FFC8C1CE0101965C01F7016B
:103600009381F30193FD859193FF81913F0188237D
:1036100009F453C1853239F493FD859193FF81916B
:103620003F01853229F4B70190E00E94DD1CE7CF0D
:10363000912C212C312CFFE1F31538F08B3211F154
:1036400090F4803209F1833229F137FC3CC020ED3F
:10365000280F2A3050F536FE20C08AE0989E200DB3
:103660001124922E06C08D3291F0803371F7689448
:1036700030F8F30193FD859193FF81913F01811112
:10368000DACF21C0689431F8689432F8F2CF6894A8
:1036900033F8EFCF689434F8ECCFEAE02E9E200D9B
:1036A0001124222E689435F8E4CF8E3229F436FCAA
:1036B00004C1689436F8DDCF8C3619F4689437F875
:1036C000D8CF8836B1F2982F9F7D95549330E0F093
:1036D0008336A1F18337C1F1833509F063C0280136
:1036E000F2E04F0E511CF801C080D180692D70E0CE
:1036F00036FC02C06FEF7FEFC6010E94C71C4C0171
:10370000689437F882010AC00C5F1F4FFFE3F9830A
:1037100088248394912C6501E89437F833FE2DC0FA
:10372000522C8114910471F5552009F468CFB7012A
:1037300080E290E00E94DD1C5A94F6CFF80180816F
:1037400089830E5F1F4FE4CF2801F2E04F0E511C1A
:10375000F801C080D180692D70E036FC02C06FEFA7
:103760007FEFC6010E94D21C4C018201D5CFB70168
:1037700080E290E00E94DD1C2A942814190409F0CC
:10378000B0F7CECFF60137FC859137FE81916F01FE
:10379000B70190E00E94DD1C51105A94F1E08F1A9D
:1037A0009108BFCF843619F0893609F077C0F80147
:1037B00037FE6BC060817181828193810C5F1F4FE6
:1037C000F32DFF763F2E97FF09C090958095709559
:1037D00061957F4F8F4F9F4F689437F82AE030E014
:1037E000A5010E940D1DC82ECA188C2C432C36FE34
:1037F0000CC0E89440F8C91440F434FE05C032FC13
:1038000003C0F32DFE7E4F2E892C44FE95C0FE0191
:10381000EC0DF11D8081803309F087C0242D297EB5
:10382000422E842D8870582E43FC95C040FE8FC0D8
:103830009C2C821418F42C0C922C981844FE91C0E5
:10384000B70180E390E00E94DD1C42FE09C088E7DA
:1038500090E041FE02C088E590E0B7010E94DD1CC7
:10386000C91408F48AC0CA94D12C9FEFC91AD90A86
:10387000CA0CDB1CF60182916F01B70190E00E9437
:10388000DD1CAC14BD04B1F74FCF60817181072EF0
:10389000000C880B990B0E5F1F4F92CFD32CE8942E
:1038A000D4F82AE030E0853739F1232D297FD22E54
:1038B0008F3601F148F48835A9F0F70186819781A8
:1038C0002B96E2E10C94E017803749F08837A9F78E
:1038D000D4FE02C06894D2F820E130E00DC06894B4
:1038E000D4F8F6CF34FE03C0822F8660D82E20E1B4
:1038F00032E002C028E030E0F801D7FE0FC060815E
:103900007181828193810C5F1F4FA5010E940D1D63
:10391000C82ECA183D2CE89437F867CF60817181B2
:1039200090E080E00E5F1F4FF0CF42FC02C0839416
:1039300078CF8394839475CF842D867809F471CFE2
:10394000F6CFB70180E290E00E94DD1C83948214E0
:10395000C0F3512C73CF522C5818821408F46ECF38
:10396000F8CF842D867809F47BCF8BE241FE80E28C
:1039700047FC8DE2B70190E071CFB70180E390E0A2
:103980000E94DD1C9A946CCF8FEF9FEF99CFFC01C2
:103990000590615070400110D8F7809590958E0F7A
:1039A0009F1F0895FC016150704001900110D8F7ED
:1039B000809590958E0F9F1F08950F931F93CF931F
:1039C000DF93182F092FEB018B8181FD09C01FEFB9
:1039D0000FEF812F902FDF91CF911F910F910895BD
:1039E00082FF14C02E813F818C819D812817390769
:1039F0003CF4E881F981CF01019699838883108393
:103A00008E819F8101969F838E83E3CFE885F98520
:103A1000812F0995892BA1F3DACFFA01AA27283043
:103A200051F1203181F1E8946F936E7F6E5F7F4F8B
:103A30008F4F9F4FAF4FB1E03ED0B4E03CD0670F07
:103A4000781F891F9A1FA11D680F791F8A1F911D5A
:103A5000A11D6A0F711D811D911DA11D20D009F4AA
:103A600068943F912AE0269F11243019305D3193EC
:103A7000DEF6CF010895462F4770405D4193B3E0D5
:103A80000FD0C9F7F6CF462F4F70405D4A3318F07C
:103A9000495D31FD4052419302D0A9F7EACFB4E02D
:103AA000A6959795879577956795BA95C9F70097E5
:103AB0006105710508959B01AC010A2E0694579586
:103AC000479537952795BA95C9F7620F731F841FDD
:103AD000951FA01D089510E0C8E7D0E004C0FE01C6
:103AE0000E94CD182196C937D107C9F7F894FFCFA6
:103AF000DF02DF02010000000000BB0680007273DD
:103B000073692C25642B736E722C25642B706C2CBE
:103B100025642B0000676169612025752F6D73672F
:103B20002C25752B7265742C25752B7075622C25D0
:103B3000752B696E762C25752B6372632C25752B7E
:103B40006379632C25752B000058585858585858DD
:103B5000313030050004040D0E131516191A1C23FC
:103B60002526292A2C3234000000003106E60057B1
:103B70000AE00294057C056905000000008601E664
:103B8000001301D30144012201360100000000624C
:103B900006C504570A4E06FA05DF05C905000000F0
:103BA00000260922091E093A090C09B309AF09AB1D
:103BB00009000000003E0DD407FB0C5807A2064682
:103BC0000A0B0ADC09130AD60DB809D609D309D0A5
:103BD00009CD09C609D909C309C009BD09BA09FA3D
:103BE000060D0A00FE0053656E644D717474002F5B
:103BF00062696E2F617368002D630052657475727F
:103C00006E3A00696E6974206661696C6564007360
:103C1000657420757020746865206E6574776F72A6
:103C20006B200073656E642062726F616463617300
:103C300074206D6573736167650047657420616EFC
:103C400020696E636F6D696E67206D657373616760
:103C5000650053656E64204A6F696E2041434B20B6
:103C6000746F20636C69656E743A00636C69656E8D
:103C70007420616C72656164792073746F72650081
:103C800073657420757021210074686520636C6908
:103C9000656E7420636F6E6E65637420686572650F
:103CA00020686173206C656174660052657175658A
:103CB000737420446174612066726F6D20636C6957
:103CC000656E743A200047657420696E636F6D6994
:103CD0006E67206D65737361676520004352432BE7
:103CE0002B2B2B00534E5200435243204572726FD0
:103CF0007200436C69656E74206973206E6F722068
:103D0000726573706F6E64732049443A00436C6946
:103D1000656E74206E756D62657200436C69656EC8
:103D200074206E756D6265723A00526566726573D5
:103D300068206E6574776F726B206166746572209F
:103D400074696D656F7574004E657720636C696585
:103D50006E742069643A00436C69656E74206E75F8
:083D60006D626572733A000008
:00000001FF
