:100000000C9479000C9472060C944B060C94A1008D
:100010000C94A1000C94A1000C94A1000C94A100DC
:100020000C94A1000C94A1000C94A1000C949407D2
:100030000C94A1000C94A1000C94A1000C94A100BC
:100040000C9401060C94A1000C9413040C94ED0381
:100050000C94A1000C94A1000C94A1000C94A1009C
:100060000C94A1000C94A1000000000023002600C5
:10007000290072740092740048940078C40072944D
:10008000008274009364009270009294000000005B
:1000900000240027002A0000000000250028002B73
:1000A0000004040404040404040202020202020321
:1000B000030303030301020408102040800102042B
:1000C00008102001020408102000000008000201AE
:1000D0000000030407000000000000000072756EBD
:1000E0002D6272696467650A000A000A0000B31590
:1000F0005B1011241FBECFEFD8E0DEBFCDBF13E0F1
:10010000A0E0B1E0EEE4FBE302C005900D92A63959
:10011000B107D9F726E0A6E9B3E001C01D92AF3CD4
:10012000B207E1F710E0C8E7D0E004C02197FE0174
:100130000E94E518C737D107C9F70E9479100C94BF
:100140009A1D0C940000CF92DF92EF92FF920F93D2
:100150001F93CF93DF936C017A018B01C0E0D0E055
:10016000CE15DF0581F0D8016D918D01D601ED919D
:10017000FC910190F081E02DC6010995892B11F0C9
:100180002196EECF7E01C701DF91CF911F910F9194
:10019000FF90EF90DF90CF900895FC01538D448D38
:1001A000252F30E0842F90E0821B930B541710F022
:1001B000CF96089501970895FC01918D828D98172F
:1001C00061F0828DDF01A80FB11D5D968C91928D3B
:1001D0009F5F9F73928F90E008958FEF9FEF089538
:1001E000FC01918D828D981731F0828DE80FF11D01
:1001F000858D90E008958FEF9FEF0895FC01918D1C
:10020000228D892F90E0805C9F4F821B91098F7314
:10021000992708958CEA94E00E94FE0021E0892B42
:1002200009F420E0822F0895FC01848DDF01A80FDE
:10023000B11DA35ABF4F2C91848D90E001968F730E
:100240009927848FA689B7892C93A089B1898C912D
:10025000837080648C93938D848D981306C002887C
:10026000F389E02D80818F7D80830895EF92FF9246
:100270000F931F93CF93DF93EC0181E0888F9B8DC9
:100280008C8D981305C0E889F989808185FD26C089
:10029000F62E0B8D10E00F5F1F4F0F731127E02E0E
:1002A0008C8DE8120CC00FB607FCFACFE889F989EB
:1002B000808185FFF5CFCE010E941401F1CF8B8D97
:1002C000FE01E80FF11DE35AFF4FF0829FB7F8944B
:1002D0000B8FEA89FB89808180620AC09FB7F894FE
:1002E000EE89FF896083E889F98980818370806461
:1002F00080839FBF81E090E0DF91CF911F910F91AC
:10030000FF90EF900895CF93DF93EC01888D8823C1
:10031000C9F0EA89FB89808185FD05C0A889B98972
:100320008C9186FD0FC00FB607FCF5CF808185FF4D
:10033000F2CFA889B9898C9185FFEDCFCE010E94BB
:100340001401E7CFDF91CF91089580E090E0892BF1
:1003500029F00E940A0181110C9400000895833055
:1003600081F028F4813099F08230A1F0089587302F
:10037000A9F08830B9F08430D1F4809180008F7D6D
:1003800003C0809180008F7780938000089584B5AA
:100390008F7702C084B58F7D84BD08958091B000B1
:1003A0008F7703C08091B0008F7D8093B000089557
:1003B000CF93DF9390E0FC01EB54FF4F2491FC01BD
:1003C000EF55FF4F8491882361F190E0880F991FCA
:1003D000FC01E357FF4FC591D491FC01E956FF4F53
:1003E000A591B491611109C09FB7F89488812095B7
:1003F00082238883EC912E230BC0623061F49FB777
:10040000F8948881322F309583238883EC912E2BAA
:100410002C939FBF06C08FB7F894E8812E2B2883BA
:100420008FBFDF91CF9108953FB7F8948091A303D8
:100430009091A403A091A503B091A60326B5A89B13
:1004400005C02F3F19F00196A11DB11D3FBFBA2F66
:10045000A92F982F8827820F911DA11DB11DBC01C6
:10046000CD0142E0660F771F881F991F4A95D1F78B
:100470000895089508958BEF08959FB7F89480919B
:100480009603882319F081508093960380919603F8
:10049000811103C08CB58F7B8CBD9FBF08958CB537
:1004A0008F778CBD08958CB580688CBD08956EBD26
:1004B00000000DB407FEFDCF8EB508959CB59C7F5E
:1004C000282F2370922B9CBD2DB582FB992790F984
:1004D000822F8E7F892B8DBD0895FC0173836283EB
:1004E0000895FC01778366830895FC017583648316
:1004F0000895089580E00895FC0181850895FC0128
:1005000080850895FC0187810895FC018681089506
:10051000FC01409595854923642B65870895FC016E
:1005200064870895FC0163870895FC01628708953C
:10053000FC0164830895FC0165830895FC01228118
:10054000338123303105D1F381E00895CF93DF93D8
:10055000EC01E881F9810280F381E02DCE0109955B
:100560008823B9F3DF91CF91089581E0089580E069
:1005700090E00895CF93DF93EC010E942B108A89BD
:10058000882331F08B89C80FD11D8C8990E002C07F
:100590008FEF9FEFDF91CF910895CF93DF93EC0121
:1005A0000E942B108A89882359F081508A8B8B896D
:1005B00091E0980F9B8BC80FD11D8C8990E002C0F1
:1005C0008FEF9FEFDF91CF910895CF93DF93EC01F1
:1005D0000E942B108A8990E0DF91CF910895CF93EC
:1005E000DF93EC010E9400108E85882341F08F85F7
:1005F000E889F989E80FF11D808190E002C08FEF52
:100600009FEFDF91CF910895CF93DF93EC010E948C
:1006100000108E85882369F081508E87E889F989DA
:100620008F8591E0980F9F87E80FF11D808190E002
:1006300002C08FEF9FEFDF91CF910895CF93DF93AB
:10064000EC010E9400108E8590E0DF91CF9108951B
:100650008F929F92AF92BF92CF92DF92EF92FF92D2
:100660000F931F93CF93DF931F92CDB7DEB75C013B
:100670009B014A01DC0152968C91811105C08B01CE
:100680007B01E40EF51E31C080E58983C12CD12C9D
:10069000E12CF12C8A0141E050E0BE016F5F7F4FF9
:1006A000F501848595850E94480B22C0D501559699
:1006B000ED91FC91569753968C91539791E0980F3A
:1006C00053969C93D8019D918D01E80FF11D908365
:1006D000F50193898489981308C00190F081E02D79
:1006E0000680F781E02DC5010995E016F106F1F6C7
:1006F000C4010F90DF91CF911F910F91FF90EF9068
:10070000DF90CF90BF90AF909F908F900895CF9241
:10071000DF92EF92FF920F931F93CF93DF93EC0141
:100720007B018A01E881F9810280F381E02D09953E
:10073000D82E882331F1E114F104D9F00115110507
:10074000C1F0CFB6F8948E8D90E00397F801208128
:1007500030E0281739071CF08E8D84508083F80113
:10076000408150E0BE016D5D7F4FC7010E94D71AE6
:10077000CFBE8FB7F894FE01E25EFE4F10821E8E50
:100780008FBF8D2DDF91CF911F910F91FF90EF9033
:10079000DF90CF90089580919C0390919D030097E6
:1007A00011F00C944C0F089580919A0390919B0343
:1007B000009711F00C944C0F08958091980390913C
:1007C0009903009711F00C944C0F0895DC01ED9102
:1007D000FC910190F081E02D09941F920F920FB6C9
:1007E0000F9211242F933F934F935F936F937F93B7
:1007F0008F939F93AF93BF93EF93FF938CEA94E013
:100800000E941401FF91EF91BF91AF919F918F9141
:100810007F916F915F914F913F912F910F900FBEFC
:100820000F901F9018951F920F920FB60F921124E0
:100830002F938F939F93EF93FF93E091BC04F091DC
:10084000BD048081E091C204F091C30482FD12C016
:1008500090818091C5048F5F8F732091C6048217A9
:1008600051F0E091C504F0E0E455FB4F958F809383
:10087000C50401C08081FF91EF919F918F912F91CD
:100880000F900FBE0F901F9018951F93CF93DF937B
:10089000282F30E0F901E753FF4F8491F901EB5421
:1008A000FF4FD491F901EF55FF4FC491CC23C1F014
:1008B000162F81110E94AF01EC2FF0E0EE0FFF1F09
:1008C000E956FF4FA591B4919FB7F894111104C058
:1008D0008C91D095D82302C0EC91DE2BDC939FBF86
:1008E000DF91CF911F910895CF93DF93FC01268173
:1008F00037812115310579F02130310541F0223061
:10090000310539F02330310531F49CE005C094E025
:1009100003C098E001C090E08CB5837F982B9CBD0C
:1009200084819581019709F04AC08CB580628CBDA5
:100930008281938101978430910528F4FC01E25F64
:10094000FE4FC08101C0C1E08C2F0E945E02DFB764
:10095000F89480919603811127C0EBEAF0E084912E
:10096000EFEBF0E09491E82FF0E0EE0FFF1FE3577C
:10097000FF4FA591B491EC91E92321F461E08AE065
:100980000E94450461E08AE00E94D8018CB5806134
:100990008CBD8CB580648CBD61E08DE00E94D80177
:1009A00061E08BE00E94D801809196038F5F809375
:1009B0009603DFBF8C2FDF91CF910C945E029CB524
:1009C0009F7D9CBDB5CF8F929F92AF92BF92CF92E9
:1009D000DF92EF92FF926B017C010E9414024B01A7
:1009E0005C01C114D104E104F104F1F00E9414028D
:1009F000DC01CB0188199909AA09BB09883E9340FB
:100A0000A105B10570F321E0C21AD108E108F1088F
:100A100088EE880E83E0981EA11CB11CC114D1047D
:100A2000E104F10419F7DDCFFF90EF90DF90CF9054
:100A3000BF90AF909F908F900895CF93DF93EC017C
:100A4000898D9A8DDC01ED91FC910680F781E02D76
:100A5000099561E08B8D0E94D80161E08B8D0E9429
:100A6000450464E670E080E090E00E94E30481E0E9
:100A7000DF91CF9108952FB7F89460919F03709103
:100A8000A0038091A1039091A2032FBF08958F929C
:100A90009F92AF92BF92CF92DF92EF92FF92CF934D
:100AA000DF93FC012789308D232BB9F1EC010E94E3
:100AB0003B054B015C0189E0C82ED12CE12CF12CC7
:100AC000E881F9810488F589E02DCE010995882314
:100AD00021F10E943B05AB01BC01481959096A0983
:100AE0007B098F89988DA0E0B0E084179507A60751
:100AF000B707A8F00E948C16A70196010E94AA17BA
:100B00009B01AC012F5F3F4F4F4F5F4FA4E6B0E01A
:100B10000E94C9170E94E304D3CF81E001C080E0A6
:100B2000DF91CF91FF90EF90DF90CF90BF90AF908B
:100B30009F908F9008958F929F92AF92BF92CF9285
:100B4000DF92EF92FF92CF93DF93EC016B010E9453
:100B50003B054B015C01E12CF12C0E943B05DC01C3
:100B6000CB0188199909AA09BB098C159D05AE0509
:100B7000BF0530F48A819B81039779F381E001C03E
:100B800080E0DF91CF91FF90EF90DF90CF90BF900A
:100B9000AF909F908F9008958F929F92AF92BF9247
:100BA000CF92DF92EF92FF92CF93DF93EC016B0134
:100BB0000E943B054B015C01E12CF12C0E943B059E
:100BC000DC01CB0188199909AA09BB098C159D057F
:100BD000AE05BF0550F4E881F9810280F381E02D74
:100BE000CE010995882351F301C080E0DF91CF91B8
:100BF000FF90EF90DF90CF90BF90AF909F908F903D
:100C000008951F920F920FB60F9211242F933F93C6
:100C10008F939F93AF93BF9380919F039091A00375
:100C2000A091A103B091A20330919E0323E0230F72
:100C30002D3720F40196A11DB11D05C026E8230F14
:100C40000296A11DB11D20939E0380939F03909354
:100C5000A003A093A103B093A2038091A30390915A
:100C6000A403A091A503B091A6030196A11DB11DF7
:100C70008093A3039093A403A093A503B093A6032A
:100C8000BF91AF919F918F913F912F910F900FBE88
:100C90000F901F9018951F920F920FB60F9211246C
:100CA0002F933F934F935F936F937F938F939F9374
:100CB000AF93BF93EF93FF93E0910201F091030193
:100CC0000995FF91EF91BF91AF919F918F917F9186
:100CD0006F915F914F913F912F910F900FBE0F90A9
:100CE0001F9018951F920F920FB60F9211242F93F9
:100CF0003F934F935F936F937F938F939F93AF93A4
:100D0000BF93EF93FF93E0910001F09101010995EA
:100D1000FF91EF91BF91AF919F918F917F916F91D3
:100D20005F914F913F912F910F900FBE0F901F90A9
:100D30001895CF93DF93EC018D819E81DC01ED91BD
:100D4000FC910084F185E02D09951816190654F4DC
:100D50008D819E81DC01ED91FC910284F385E02D73
:100D60000995EACFDF91CF9108958F929F92AF922C
:100D7000BF92CF92DF92EF92FF92CF93DF93EC017D
:100D80006B010E943B054B015C01E12CF12C8D8134
:100D90009E81DC01ED91FC910284F385E02D0995A3
:100DA00097FF0FC00E943B05DC01CB018819990910
:100DB000AA09BB098C159D05AE05BF0540F38FEF51
:100DC0009FEFDF91CF91FF90EF90DF90CF90BF909A
:100DD000AF909F908F900895FC0123813481262746
:100DE000022E2295207F2025032E322F22952F7050
:100DF0000226269532272327220F220F220F202595
:100E0000348323830895CF92DF92EF92FF920F9362
:100E10001F936801790100E010E020E030E00E94BB
:100E2000480B1F910F91FF90EF90DF90CF900895A6
:100E30000F931F9300E010E020E030E00E940307D2
:100E40001F910F910895CF93DF9300D01F92CDB7DC
:100E5000DEB729E42983FC0126852A836B8343E0DE
:100E600050E0BE016F5F7F4F848595850E94180713
:100E700081E090E00F900F900F90DF91CF91089557
:100E8000CF93DF93FC01228921110BC0EC01438930
:100E900050E065897689848595850E94180781E0F0
:100EA0008B8BDF91CF910895CF93DF9300D0CDB797
:100EB000DEB7DC0152968C915297882379F080E559
:100EC00089836A8342E050E0BE016F5F7F4F1C96CA
:100ED0008D919C911D970E9418071FC05596ED910A
:100EE000FC91569753968C91539791E0980F539697
:100EF0009C935397E80FF11D608353969C915397F1
:100F000054968C915497981308C0ED91FC911197C9
:100F10000680F781E02DCD01099581E090E00F90EA
:100F20000F90DF91CF9108951F920F920FB60F92FD
:100F300011242F933F934F935F936F937F938F93DE
:100F40009F93AF93BF93CF93DF93EF93FF938091E2
:100F5000020090910300049709F0C5C020911B0086
:100F600030E0F901E753FF4F8491F901EB54FF4F53
:100F7000D491F901EF55FF4FC491CC2379F0811141
:100F80000E94AF01EC2FF0E0EE0FFF1FE859FF4F7A
:100F9000A591B491EC91ED2381E009F480E081709A
:100FA00090911E00892719F093B19F5F93B992B178
:100FB000981759F094B1903510F09DE101C09BE075
:100FC00024B1920F94B982B903C084B18C5E84B904
:100FD00084B1803A08F4DBC086B197B196958795C5
:100FE00097B986B983B1853028F086B197B19860FA
:100FF00097B986B984B1805A84B913B885B188236A
:1010000009F465C088B18F5F88B98C3008F4BFC01F
:1010100086B197B1982F9F73892F86958695887092
:1010200028E0280F281749F0E82FF0E0EE5EFE4F89
:101030003081931719F08F5FF5CF80E020E1829F18
:10104000C001112426B137B196E0369527959A95BF
:10105000E1F7422F3695279536952795287038E089
:10106000320F321749F0E22FF0E0EE5EFE4F508172
:10107000451719F02F5FF5CF20E0822B90916D007E
:101080009923B1F0E0916D0091E09E0F90936D0077
:10109000F0E081A790916D0080916C009817A8F006
:1010A00015B881E080B980E090E00E94340F0DC057
:1010B00080936C0090916C00973008F45EC0909122
:1010C0006C00943408F059C0DDCF18B860C086B108
:1010D00097B188339B4009F05AC081E085B918B8B0
:1010E00010926D0054C0809102009091030003970C
:1010F00009F04DC08091700091E0980F90937000BE
:10110000811134C0E0916E008091FF00E81770F00B
:1011100080E090E00E94340F8091140090911500BF
:101120000196909315008093140020C0F0E0EF58D2
:10113000FF4F608170E080916F0091E0980F909375
:101140006F0002C0759567958A95E2F7617080918E
:101150001C000E94450480916F00863038F0109288
:101160006F0080916E008F5F80936E0080917000A1
:10117000883068F0109270000AC015B88091100095
:101180009091110001969093110080931000FF91AF
:10119000EF91DF91CF91BF91AF919F918F917F910F
:1011A0006F915F914F913F912F910F900FBE0F90D4
:1011B0001F901895FF920F931F93CF93DF93EC012D
:1011C000162FF42E0FB7F89460E08B8D0E94450423
:1011D000898D9A8D612F6068DC01ED91FC91019001
:1011E000F081E02D0995182F898D9A8DDC01ED9104
:1011F000FC910190F081E02D6F2D099561E08B8DC0
:101200000E9445040FBF812FDF91CF911F910F9155
:10121000FF900895CF93DF93FC0122813381213029
:10122000310549F0EC0140E061E00E94DA0881E01C
:1012300090E09B838A8381E0DF91CF910895CF92E4
:10124000DF92EF92FF92CF93DF93EC01CB01BA01D3
:1012500020E034E244E759E40E94EC1620E034E256
:1012600044E752E40E9444180E94B6186B017C01C6
:10127000A7016627772766E0CE010E94DA08772764
:101280006F2D5E2D4D2D67E0CE010E94DA084C2DAA
:1012900068E0CE010E94DA0881E0DF91CF91FF90F3
:1012A000EF90DF90CF900895CF92DF92EF92FF9270
:1012B0000F931F93CF93DF934C3F08F066C0142F1A
:1012C000072FF62EEC01E881F9810484F585E02DE5
:1012D0000995CE010E94130D40E06DE0CE010E9401
:1012E000DA084A8560E0CE010E94DA084B8560E0AA
:1012F000CE010E94DA084C8560E0CE010E94DA0837
:101300004D8560E0CE010E94DA08EFB6F89460E007
:101310008B8D0E944504898D9A8DDC01ED91FC91A5
:101320000190F081E02D60E80995CF2CD02E012F9F
:10133000015068F0898D9A8DF60161916F01DC0191
:10134000ED91FC910190F081E02D0995F1CF61E0E4
:101350008B8D0E944504EFBE44E0410F62E2CE0156
:101360000E94DA088A819B81039789F043E061E05B
:10137000CE010E94DA0840E460E4CE010E94DA085F
:1013800083E090E09B838A8302C080E001C081E01B
:10139000DF91CF911F910F91FF90EF90DF90CF9051
:1013A0000895CF93DF93FC012281338123303105EF
:1013B000B9F0EC0182819381049771F045E061E01E
:1013C000CF010E94DA0840E060E4CE010E94DA0812
:1013D00084E090E09B838A83C25EDE4F888101C0F7
:1013E00080E0DF91CF9108950F931F93CF93DF9308
:1013F000EC01162F0FB7F89460E08B8D0E94450426
:10140000898D9A8D612F6F77DC01ED91FC910190B0
:10141000F081E02D0995898D9A8DDC01ED91FC918B
:101420000190F081E02D60E00995182F61E08B8D2F
:101430000E9445040FBF812FDF91CF911F910F9123
:101440000895EF92FF920F931F93CF93DF9300D0F5
:101450001F92CDB7DEB78C010E941D05E82E8111C9
:1014600002C0E12C81C0F801848D823029F08330E4
:10147000C1F7FF24F39401C0F12C40E861E0C801FA
:101480000E94DA086AE070E080E090E00E94E304E5
:1014900061E0C8010E94F409803819F760E0F801A2
:1014A000848D0E94D801F801858D8F3F49F4809189
:1014B00097038430B0F691E0980F90939703858F4F
:1014C000F801858DE82FF0E0EE0FFF1FE856FC4F86
:1014D00011830083811103C06DED73E00AC0813078
:1014E00019F464ED73E005C0823009F0BACF6BECFB
:1014F00073E08F2D0E94270D40E06EE0C8010E942E
:10150000DA0840E06FE0C8010E94DA08C8010E94D2
:10151000130D43E050E065E770E0CE0101960E94B4
:10152000E31649816DE1C8010E94DA084A816EE143
:10153000C8010E94DA084B8166E2C8010E94DA08FD
:1015400040E060E2C8010E94DA0848E061E2C801B8
:101550000E94DA0840E050E069E574E4C8010E94A6
:101560001F09C8010E94050D8E2D0F900F900F903E
:10157000DF91CF911F910F91FF90EF9008950E94FE
:10158000D21A0F931F93CF93DF93EC018881998137
:10159000009729F02A813B812617370788F48B01B1
:1015A0006F5F7F4F0E940C1A009761F099838883C8
:1015B0001B830A832C813D81232B11F4FC011082B3
:1015C00081E001C080E0DF91CF911F910F910895DC
:1015D000EF92FF920F931F93CF93DF93EC017B0168
:1015E0008A01BA010E94C10A2881398181110DC086
:1015F0002115310519F0C9010E9483191982188239
:101600001D821C821B821A8206C01D830C83B701B7
:10161000C9010E94E01ACE01DF91CF911F910F9175
:10162000FF90EF900895FC011182108213821282C4
:10163000158214826115710551F0FB0101900020A3
:10164000E9F73197AF01461B570B0C94E80A089550
:10165000009769F0FC0101900020E9F73197AF0194
:10166000481B590BBC0185E994E00C94280380E0E9
:1016700090E00895CF93DF930E94280BEC0187E759
:1016800092E00E94280B8C0F9D1FDF91CF9108954F
:101690002F923F924F925F926F927F928F929F9282
:1016A000AF92BF92CF92DF92EF92FF920F931F9370
:1016B000CF93DF93CDB7DEB72E970FB6F894DEBF8A
:1016C0000FBECDBF9E878D873B0129019A01200F58
:1016D000311F3A8329838A80912C22242A94322C28
:1016E000CB01840F951F98878F83D201A00FB11F64
:1016F000BA87A987F701EC0DFD1DFC87EB87AD8547
:10170000BE8518968C911897981608F03FC11496CC
:101710003C922E92139715968D919C911697DC0111
:10172000ED91FC910190F081E02D6FEF09956FEF45
:101730008D859E850E94EC06ED85FE8585819681CE
:10174000DC01ED91FC910190F081E02DAD85BE852D
:101750006C910995ED85FE856081CF010E94EC06B4
:10176000AD85BE8515968D919C911697DC01ED9106
:10177000FC910190F081E02D682D0995682D8D85F3
:101780009E850E94EC06ED85FE8585819681DC01B3
:10179000ED91FC910190F081E02D698109956981BD
:1017A0008D859E850E94EC065301EF81F885AE166B
:1017B000BF06C1F0AD85BE8515968D919C9116979B
:1017C0008501DC01ED91FC910190F081E02DD501C6
:1017D0006D915D010995F80160818D859E850E945E
:1017E000EC06E3CF8201AD85BE8515968D919C9167
:1017F0001697E985FA850E171F0791F05801DC014D
:10180000ED91FC910190F081E02DD8016D918D0159
:101810000995F50160818D859E850E94EC06E3CFD8
:10182000AD85BE8514966C91DC01ED91FC91019023
:10183000F081E02D0995ED85FE8585819681DC019D
:10184000ED91FC910190F081E02DAD85BE85139660
:101850006C91099564E670E08D859E850E94B506C1
:101860008F3F910509F086C0ED85FE853482238285
:101870006FEFCF010E94EC0665E070E08D859E85DC
:101880000E94B506AD85BE856C91262F30E082178B
:10189000930709F06FC0CD010E94EC066AE070E08A
:1018A0008D859E850E94B5065C0197FD63C0682FFB
:1018B0008D859E850E94EC066AE070E08D859E8590
:1018C0000E94B5068C0197FD55C0682F8D859E85B9
:1018D0000E94EC06AC821B82EB81FC810E0F1F1F65
:1018E00057019701200F311F3E832D838D819E81EB
:1018F000A816B906C1F0AB85BC85AA16BB0699F03F
:1019000065E070E08D859E850E94B50697FD07C055
:10191000F5018083682F8D859E850E94EC06FFEF80
:10192000AF1ABF0AE3CF65E070E08D859E850E9407
:10193000B5065C0197FD1EC065E070E08D859E8553
:101940000E94B50697FD16C0BA2CAA248A0D9B1DCD
:10195000AD85BE8513962D913C9114978217930700
:1019600049F48C918F5F8C93C801C016D10680F426
:10197000C6010EC0939464E670E080E090E00E949F
:10198000E3048D859E850E949906B9CE8FEF9FEF67
:101990002E960FB6F894DEBF0FBECDBFDF91CF916C
:1019A0001F910F91FF90EF90DF90CF90BF90AF907D
:1019B0009F908F907F906F905F904F903F902F906F
:1019C0000895EF92FF920F931F93CF93DF938C01B3
:1019D0007B01C0E0D0E0F701EC0FFD1F64916623AE
:1019E00061F0D801ED91FC910190F081E02DC801EA
:1019F0000995892B11F02196EECFCE01DF91CF9181
:101A00001F910F91FF90EF900895CF93DF93EC011A
:101A100044E06DE40E94DA0848E869E0CE01DF9115
:101A2000CF910C94DA08CF93DF93FC0122813381AC
:101A30002230310549F0EC0141E061E00E94DA0812
:101A400082E090E09B838A83DF91CF91089582307A
:101A5000B8F4E82FF0E0EE0FFF1FE050FF4F718366
:101A60006083813039F080916900836080936900E0
:101A7000E89A0895809169008C6080936900E99AE2
:101A800008958F929F92AF92BF920F931F93CF931F
:101A9000DF93CDB7DEB7A1970FB6F894DEBF0FBEC8
:101AA000CDBF19A2423008F44AE08E010F5D1F4FEE
:101AB000842E912CA12CB12CA50194010E94131805
:101AC000E62FB901CA0101501109EA3014F4E05DB2
:101AD00001C0E95CD801EC93232B242B252B61F763
:101AE000C8010E94280BA1960FB6F894DEBF0FBE66
:101AF000CDBFDF91CF911F910F91BF90AF909F907D
:101B00008F900895CF92DF92EF92FF92CF93DF9361
:101B10006C01990FEE08FF08F7FE13C06DE285E92E
:101B200094E00E94E603EC0166277727CB016C194D
:101B30007D098E099F094AE00E94410DC80FD91FF7
:101B400006C04AE0C701B6010E94410DEC0187E7DB
:101B500092E00E94280B8C0F9D1FDF91CF91FF9088
:101B6000EF90DF90CF9008950C94280B0F931F9364
:101B7000CF93DF9300D0CDB7DEB78C01FC01818914
:101B8000882369F087E7898386858A8342E050E06D
:101B9000BE016F5F7F4F848595850E941807F8010D
:101BA000118A0F900F90DF91CF911F910F9108959F
:101BB000CF92DF92EF92FF920F931F93CF93DF9319
:101BC0006C017B01FC01C785D0890C811D810F5FF1
:101BD0001F4FB801CE010E94C10A882361F02881FD
:101BE00039818C819D8166E773E0820F931F0E948B
:101BF000E01A1D830C83F70104811581E080F180D8
:101C0000E114F104D9F001151105C1F0F601C78501
:101C1000D0898C819D81080F191FB801CE010E94C7
:101C2000C10A882359F0288139818C819D81B701AF
:101C3000820F931F0E94E01A1D830C83DF91CF91C6
:101C40001F910F91FF90EF90DF90CF900895AF928A
:101C5000BF92CF92DF92EF92FF920F931F93CF9399
:101C6000DF93CDB7DEB7C256D1090FB6F894DEBF09
:101C70000FBECDBF88E793E00E943A0B1C821B8207
:101C800088EE93E0A0E0B0E08D839E83AF83B887B9
:101C900081E092E09A83898389E495E09E878D872D
:101CA0001A8A1B8A1C8A6BE776E0CE01855A9F4F01
:101CB0000E94130B5E0185E5A80EB11C61E873E07C
:101CC000C5010E94130BCE0101960E94B60D86E05D
:101CD00090E00E94EB188C01FC01118210821382AB
:101CE0001282158214828A159B0551F0F5016081DC
:101CF00071816115710521F0448155810E94E80AC6
:101D0000198B088BF501808191810E9483196AE803
:101D100073E0C5010E94130BB501CE0101960E942C
:101D2000D80DF501808191810E948319BE01655A09
:101D30007F4FCE0101960E94D80D82E5A2968FAF0B
:101D4000A297E889F989048115812081318142E0D7
:101D5000C42ED12C750141E050E0BE016F597F4F78
:101D60008D859E850E94480BF50181818F870889AA
:101D700019890115110541F0F801808191810E94B6
:101D80008319C8010E948319198A188AF501808174
:101D9000811102C081E08A8B32E7F32EF501F082D7
:101DA0008F85818301E010E09E012F593F4F42E073
:101DB00050E0B5018D859E850E940307A2968FADE8
:101DC000A297813039F464E670E080E090E00E94F0
:101DD000E304E4CF87E5A2968FAFA2978F85A39601
:101DE0008FAFA39702E010E0950142E050E0BE0102
:101DF0006F597F4F8D859E850E940307F501808175
:101E000090E0982F882721815C01A20EB11C6D966D
:101E10008EAD9FAD6D970E9483198DE893E00E946F
:101E2000B40DC5010E94820D85E994E00E9440072F
:101E3000A89581E092E09A838983CE0101960E9461
:101E4000B60DC501CE59DF4F0FB6F894DEBF0FBEF9
:101E5000CDBFDF91CF911F910F91FF90EF90DF9059
:101E6000CF90BF90AF900895CF93DF93FC01228174
:101E700033812230310569F0EC01678D858D0E9438
:101E8000450460E08C8D0E94450482E090E09B83D5
:101E90008A83DF91CF910895DF92EF92FF920F93A3
:101EA0001F93CF93DF93EC0162E10E94F4092A8132
:101EB0003B812430310521F4982F907A09F076C0C7
:101EC0002A813B812430310509F081C086FF7FC023
:101ED00063E1CE010E94F409082F60E1CE010E9467
:101EE000F409482F6DE0CE010E94DA08DFB6F894BD
:101EF00060E08B8D0E944504898D9A8DDC01ED9107
:101F0000FC910190F081E02D60E009957E01BFE138
:101F1000EB0EF11C102F112379F0898D9A8DDC01C5
:101F2000ED91FC910190F081E02D60E00995F701C1
:101F300081937F011150EFCF61E08B8D0E944504AA
:101F4000DFBE0E8F4FEF62E1CE010E94DA086AE138
:101F5000CE010E94F40989588E8769E1CE010E9462
:101F6000F40990E09595879595958795919581953C
:101F700091098F878E8DFE01E25EFE4F843090F0D6
:101F80008F8D8E8388A18F8389A188878AA1898775
:101F90008D81811129C09E818C81981729F18E81B4
:101FA0008F3F11F18081882331F026C0888999897B
:101FB0000196998B888B4FEF62E1CE01DF91CF9133
:101FC0001F910F91FF90EF90DF900C94DA082A8117
:101FD0003B812330310579F783FFEDCF8C899D89D3
:101FE00001969D8B8C8B08C08A899B8901969B8B5F
:101FF0008A8B81E08083D6CFCE010E94130DDBCF88
:10200000EF92FF920F931F93CF93DF9300D0CDB742
:10201000DEB7FC012685211115C07C01178680E7FB
:10202000898380E28A832089318900E210E042E0DE
:1020300050E0BE016F5F7F4F848595850E94030746
:10204000F70186870F900F90DF91CF911F910F912D
:10205000FF90EF900895EF92FF920F931F93CF930D
:10206000DF9300D01F92CDB7DEB7FC01228921118A
:1020700018C07C01138A8FE4898380E48B83868572
:102080008A839F012C5E3F4F00E410E043E050E064
:10209000BE016F5F7F4F848595850E940307F7011E
:1020A000828B0F900F900F90DF91CF911F910F9126
:1020B000FF90EF9008958BEA91E0909396048093BF
:1020C00095048091A70481110BC08091AA0490917E
:1020D000AB04009711F00E94831981E08093A7045C
:1020E0008091A5049091A604009711F00C94831997
:1020F0000895CF93DF93CDB7DEB7AF970FB6F894BF
:10210000DEBF0FBECDBF789484B5826084BD84B538
:10211000816084BD85B5826085BD85B5816085BDE2
:1021200080916E00816080936E001092810080919A
:102130008100826080938100809181008160809322
:102140008100809180008160809380008091B10047
:1021500084608093B1008091B00081608093B00072
:1021600080917A00846080937A0080917A00826006
:1021700080937A0080917A00816080937A008091C8
:102180007A00806880937A001092C10099E288E119
:102190000FB6F894A895809360000FBE90936000EE
:1021A000E0915205F0915305A089B18982E08C93AA
:1021B000A485B5851C92A685B78580E18C93108E89
:1021C000A489B58986E08C93A289B3898C918061BA
:1021D0008C93A289B3898C9188608C93A289B389EE
:1021E0008C9180688C930288F389E02D80818F7DAB
:1021F0008083809150058111BDC081E0809350059E
:1022000089E495E00E94990668EE73E080E090E032
:102210000E94E30480914E0590914F05DC01ED9101
:10222000FC910084F185E02D09951816190644F3F8
:10223000FF24F39452E3E52E85E0EDE6F1E0DE01C4
:102240005F9601900D928A95E1F7F092510545E075
:1022500050E0BE01615E7F4F89E495E00E9418075F
:1022600063E080914E0590914F050E94E6036AEF6E
:1022700070E080E090E00E94E3046BEE70E08091FB
:102280004E0590914F050E94E10C6AEF70E080E0EE
:1022900090E00E94E30469EE70E080914E05909119
:1022A0004F050E94E10C64EF71E080E090E00E9435
:1022B000E3046DED70E080914E0590914F050E9412
:1022C000E10C64EF71E080E090E00E94E30489E4B7
:1022D00095E00E94990685E0E2E7F1E0DE011196C3
:1022E00001900D928A95E1F7E092510504E010E02B
:1022F0009E012C5D3F4F45E050E0BE016F5F7F4F78
:1023000089E495E00E9403078F3FBFEF9B0739F4F4
:1023100068EE73E080E090E00E94E3048DCF2CA192
:102320002111FFCF0497E9F42DA130E020533109AA
:1023300084E6829FA001839F500D11242EA130E0DE
:10234000205331096AE0629FC001639F900D112400
:10235000840F951F2FA130E020533109820F931F66
:1023600002C084E690E090934B0580934A0582E397
:102370008093510584E595E00E94210A811104C0F3
:102380008FE092E00E943A0BA89540E050E069E5AA
:1023900074E484E595E00E941F0984E595E00E94BD
:1023A000050DA895FE013196F9A7E8A78091930441
:1023B00090919404892B09F013C18BE192E00E9463
:1023C0003A0B82E48F8F83E488A381E089A38AE3B8
:1023D0008AA31092AA031092A90320E5F22E3AE4F0
:1023E000E32E41E4D42ECC24C3948091A903909190
:1023F000AA03883C91050CF0DCC08FE292E00E94B9
:102400003A0BA89544E0BE01615E7F4F84E595E0FC
:102410000E945409A89584E595E00E949E02A89523
:1024200064EF71E084E595E00E94CC05882309F40F
:1024300075C0A89586E492E00E943A0B10927B0644
:10244000FCA2AE014C5D5F4F6BE776E084E595E062
:102450000E948703882309F4A2C0A89580917B0677
:102460008A3409F09CC080917C06823509F097C0BF
:1024700080917D06813009F092C080917E068111A5
:1024800003C08BEF92E047C005E010E0E982DA82FA
:10249000CB8280917E068C838EE592E00E94B40D03
:1024A00060917E0670E080E090E04AE00E94410D7D
:1024B00087E792E00E94280BA89544E0BE016F5F79
:1024C0007F4F84E595E00E945409A89584E595E046
:1024D0000E949E02A8951092A8031092A70364EF91
:1024E00071E080E090E00E94E3040150110971F670
:1024F00020917E06422F50E0EFEAF3E033E0E33C28
:10250000F30711F18191082E000C990B84179507A0
:10251000A9F78AE792E00E943A0B41C08091A70395
:102520009091A80301969093A8038093A7034097E6
:10253000B4F141E050E0509394044093930410921E
:10254000A8031092A70335C080918B0490918C044E
:10255000FC01E155FC4F2083019690938C048093FD
:102560008B0487E593E00E94B40D60917E0670E0D5
:1025700080E090E04AE00E94410D87E792E00E94EF
:10258000280B86E693E00E94B40D80918B04909115
:102590008C040E94820D1092A8031092A7038091D0
:1025A000A9039091AA0301969093AA038093A9038B
:1025B0001CCFA89564E670E080E090E00E94E30400
:1025C0008FE892E00E943A0B0E943B0560938F04D3
:1025D000709390048093910490939204A895E9C11C
:1025E00080918D0490918E04019690938E04809337
:1025F0008D0413ECE12E13E0F12E03E1802E04E0B4
:10260000902E8BEE282E83E0382E6BE374E07BA7B0
:102610006AA793E6A92E94E0B92E0FEA13E0209161
:102620008B0430918C04C8018F5A93408217930712
:102630000CF0B4C1A89562E370E080E090E00E94E5
:10264000E304D8018C91811105C088E992E00E94D1
:102650003A0BA4C1B3E0CB2ED12CB4E4BF8FE2E59A
:10266000E8A3F1E0F9A3D8018C918AA38AEB92E068
:102670000E94B40D6AA170E080E090E04AE00E9400
:10268000410DA89544E0BE01615E7F4F84E595E071
:102690000E945409A89584E595E00E949E02A895A1
:1026A00068EE73E084E595E00E94CC05882309F488
:1026B0002DC1A89585ED92E00E943A0BEBE7F6E07C
:1026C00020E511922A95E9F730E53CA3A895AE01E3
:1026D0004C5D5F4F6BE776E084E595E00E948703F1
:1026E000882309F441C1A8951092AE031092AD035E
:1026F0002CA130E0290142E0441A5108B201550CE6
:10270000880B990B6CA77DA78EA79FA7672B682BBB
:10271000692B59F1EBE7F6E0412C512C320180E0B6
:1027200090E04CA55DA56EA57FA5441655066606EE
:102730007706E8F44191942740E050E0BC01660F31
:10274000771F97FF06C0CB01A1E28A27A0E19A2755
:1027500001C0CB014F5F5F4F4830510579F7BFEFA4
:102760004B1A5B0A6B0A7B0ADCCF80E090E0F90130
:10277000E658F94F408150E0542F4427F901E758BB
:10278000F94F2081FA01E22B9F012817390759F4EC
:1027900021E030E03093AC032093AB038BEE92E06A
:1027A0000E943A0B04C01092AC031092AB038091CC
:1027B000AB039091AC03019709F094C01092AC0365
:1027C0001092AB0380917B06843409F079C080912C
:1027D0007C06833509F074C080917D06813009F054
:1027E0006FC090917E068AA198136AC0A8959091B7
:1027F0006305809162052CA11F922F93292F092E2A
:10280000000C330B3F939F93282F082E000C330BA3
:102810003F938F9382E291E09F938F9341E050E04A
:102820004C0F5D1F5F934F930E94E71A6C017090ED
:10283000630583EF92E00E94B40D872D770C990B0E
:102840000E94820DA89587E680937B0681E680939F
:102850007C0699E690937D0680937E0680E28093C5
:102860007F06ECA1F0E0E758F94F0FB6F894DEBF11
:102870000FBECDBFDE011196CD0128A539A5821B63
:10288000930B8C159D051CF48D918193F5CFA89524
:10289000D7018D919C91119701968D939C930E94E5
:1028A000270E8A3F910531F4F401808191810196D0
:1028B00091838083A8951092AE031092AD0359C006
:1028C000AAA5BBA58D919C91119701968D939C9380
:1028D0008091AD039091AE0301969093AE038093E7
:1028E000AD0342C0F501808191810196918380837F
:1028F0008091AD039091AE0301969093AE038093C7
:10290000AD0387EF92E00E943A0B2EC0D1018D916A
:102910009C91119701968D939C938091AD0390911A
:10292000AE0301969093AE038093AD030397E1F459
:102930001092AE031092AD0381E093E00E94B40DBB
:10294000F801608185E994E00E94E60387E792E060
:102950000E94280B8CE193E00E94B40D80918B04BF
:1029600090918C040E94820DF1E0CF1AD10809F0F9
:1029700074CE22E0E20EF11C32E0830E911C0F5F58
:102980001F4F42E0240E311C6AA57BA56E5F7F4F6E
:102990007BA76AA772E0A70EB11C41CEA8958AE278
:1029A00093E00E94B40D80918B0490918C040E945E
:1029B000820D62E370E080E090E00E94E3040E94F8
:1029C0003B0500918F041091900420919104309167
:1029D0009204DC01CB01801B910BA20BB30B813A5B
:1029E0009B4BAD40B10508F4BBC089E393E00E9466
:1029F0003A0B109294041092930480E5ABE7B6E092
:102A00001D928A95E9F793E6692E94E0792E0BE3FF
:102A100014E023E1E22E24E0F22E3BEEA32E33E07D
:102A2000B32E43ECC42E43E0D42E5FEA452E53E090
:102A3000552E6BEC262E66E0362E20918B043091BD
:102A40008C04C2018F5A9340821793070CF061C027
:102A5000F3019080A181F2E06F0E711CF80170818A
:102A600081800E5F1F4FF70150816181F2E0EF0E10
:102A7000F11CF50130814181F2E0AF0EB11CF6018D
:102A800090812181F2E0CF0ED11CF20181912F01C2
:102A9000B0918E04BF93B0918D04BF93AF939F927A
:102AA0008F927F936F935F934F933F932F939F9357
:102AB000282F082E000C330B3F938F9329E331E02E
:102AC0003F932F936BE776E07F936F930E94E71A13
:102AD0008BE7882E86E0982E0FB6F894DEBF0FBEE7
:102AE000CDBF2814390441F0F40161914F0185E90B
:102AF00094E00E94E603F5CF87E792E00E94280B5E
:102B00000E94270E6AE070E080E090E00E94E304FB
:102B100094CF10928E0410928D0488E2EBE3F4E0DF
:102B2000DF01282F1D922A95E9F7EBEEF3E0DF0194
:102B3000282F1D922A95E9F7E3ECF3E0DF01282F17
:102B40001D922A95E9F7E3E1F4E0DF01282F1D92B9
:102B50002A95E9F7E3E6F4E0DF011D928A95E9F7AB
:102B60000E94A50123CCCF93DF93ECEAF4E013821B
:102B7000128248EE53E060E070E044835583668340
:102B800077838BE791E09183808385EC90E0958754
:102B9000848784EC90E09787868780EC90E0918B27
:102BA000808B81EC90E0938B828B82EC90E0958B14
:102BB000848B86EC90E0978B868B118E128E138E11
:102BC000148EA5E9B4E013961C921E9212971496E7
:102BD0004D935D936D937C9317978BEA91E01196DB
:102BE0009C938E93C9E4D5E01D96DC93CE931C97FD
:102BF0001E961C921E971F961C921F9751961C9210
:102C00001E92509781E052968C931882FE83ED833A
:102C10001F821886FA87E987A3E7B6E013961C920D
:102C20001E92129715961C921E92149717961C923C
:102C30001E9216978DEB91E011969C938E93E4E58E
:102C4000F5E0138212828FEF848382878387148654
:102C50001586118A108A138A128A158A148A108E90
:102C6000178AB28FA18F9AE0938F21ED31E03183E3
:102C700020831092720692E0948F858FDF91CF911E
:102C800008958F929F92AF92BF92CF92DF92EF9270
:102C9000FF92CF93DF93EC01688179818A819B81D8
:102CA000611571058105910521F464E279ED8BE5EB
:102CB00097E02DE133EF41E050E00E94AA1749016F
:102CC0005A019B01AC01A7EAB1E40E94C9176B014C
:102CD0007C01ACEEB4EFA50194010E94D717DC0192
:102CE000CB018C0D9D1DAE1DBF1DB7FF03C001970D
:102CF000A109B04888839983AA83BB83BC01CD0115
:102D00009F77DF91CF91FF90EF90DF90CF90BF90B2
:102D1000AF909F908F9008958F929F92AF92BF92A5
:102D2000CF92DF92EF92FF926091040170910501C2
:102D3000809106019091070161157105810591054A
:102D400021F464E279ED8BE597E02DE133EF41E08A
:102D500050E00E94AA1749015A019B01AC01A7EA61
:102D6000B1E40E94C9176B017C01ACEEB4EFA50180
:102D700094010E94D717DC01CB018C0D9D1DAE1D67
:102D8000BF1DB7FF03C00197A109B048809304019C
:102D900090930501A0930601B0930701BC01CD01FA
:102DA0009F77FF90EF90DF90CF90BF90AF909F9074
:102DB0008F9008956093040170930501809306013C
:102DC000909307010895FB01DC0102C005900D926C
:102DD00041505040D8F708950E94FF160C94701788
:102DE0000E94621738F00E94691720F0952311F0B5
:102DF0000C9459170C945F1711240C94A4170E947B
:102E0000811770F3959FC1F3950F50E0551F629F96
:102E1000F001729FBB27F00DB11D639FAA27F00D33
:102E2000B11DAA1F649F6627B00DA11D661F829F5A
:102E30002227B00DA11D621F739FB00DA11D621F3F
:102E4000839FA00D611D221F749F3327A00D611D5C
:102E5000231F849F600D211D822F762F6A2F11243E
:102E60009F5750409AF0F1F088234AF0EE0FFF1F71
:102E7000BB1F661F771F881F91505040A9F79E3FC8
:102E8000510580F00C9459170C94A4175F3FE4F39C
:102E9000983ED4F3869577956795B795F795E7951E
:102EA0009F5FC1F7FE2B880F911D9695879597F927
:102EB000089597F99F6780E870E060E008959FEFBC
:102EC00080EC089500240A941616170618060906C1
:102ED000089500240A941216130614060506089590
:102EE000092E0394000C11F4882352F0BB0F40F418
:102EF000BF2B11F460FF04C06F5F7F4F8F4F9F4F58
:102F0000089557FD9058440F551F59F05F3F71F0D9
:102F10004795880F97FB991F61F09F3F79F0879540
:102F20000895121613061406551FF2CF4695F1DFC9
:102F300008C0161617061806991FF1CF8695710559
:102F4000610508940895E894BB2766277727CB018D
:102F500097F90895052E97FB1EF400940E94C1175F
:102F600057FD07D00E94131807FC03D04EF40C94B1
:102F7000C11750954095309521953F4F4F4F5F4F6A
:102F8000089590958095709561957F4F8F4F9F4FD5
:102F900008950E943518A59F900DB49F900DA49F91
:102FA000800D911D11240895B7FF0C94C9170E943C
:102FB000C917821B930B08952F923F924F925F92F5
:102FC0006F927F928F929F92AF92BF92CF92DF9239
:102FD000EF92FF920F931F93CF93DF93CDB7DEB79E
:102FE000CA1BDB0B0FB6F894DEBF0FBECDBF099432
:102FF0002A88398848885F846E847D848C849B8489
:10300000AA84B984C884DF80EE80FD800C811B8196
:10301000AA81B981CE0FD11D0FB6F894DEBF0FBEC5
:10302000CDBFED010895A1E21A2EAA1BBB1BFD0125
:103030000DC0AA1FBB1FEE1FFF1FA217B307E40797
:10304000F50720F0A21BB30BE40BF50B661F771FEF
:10305000881F991F1A9469F76095709580959095CF
:103060009B01AC01BD01CF010895A29FB001B39FA8
:10307000C001A39F700D811D1124911DB29F700D81
:10308000811D1124911D08950E9458180C947017E9
:103090000E94691758F00E94621740F029F45F3FC0
:1030A00029F00C94591751110C94A4170C945F1724
:1030B0000E94811768F39923B1F3552391F3951B6F
:1030C000550BBB27AA2762177307840738F09F5F49
:1030D0005F4F220F331F441FAA1FA9F335D00E2EB6
:1030E0003AF0E0E832D091505040E695001CCAF723
:1030F0002BD0FE2F29D0660F771F881FBB1F2617E6
:1031000037074807AB07B0E809F0BB0B802DBF01BC
:10311000FF2793585F4F3AF09E3F510578F00C948B
:1031200059170C94A4175F3FE4F3983ED4F38695A7
:1031300077956795B795F7959F5FC9F7880F911DAC
:103140009695879597F90895E1E0660F771F881F98
:10315000BB1F621773078407BA0720F0621B730B4B
:10316000840BBA0BEE1F88F7E09508950E9489172B
:1031700088F09F5798F0B92F9927B751B0F0E1F038
:10318000660F771F881F991F1AF0BA95C9F714C0E8
:10319000B13091F00E94A317B1E008950C94A317E9
:1031A000672F782F8827B85F39F0B93FCCF3869521
:1031B00077956795B395D9F73EF49095809570957E
:1031C00061957F4F8F4F9F4F0895EE0FFF1F059022
:1031D000F491E02D09940F931F93CF93DF938230E6
:1031E000910510F482E090E0E091CD06F091CE06DA
:1031F00020E030E0A0E0B0E0309719F1408151814B
:103200000281138148175907C8F08417950769F49C
:10321000109731F012960C93129713961C9327C0B7
:103220000093CD061093CE0622C02115310519F06A
:103230004217530718F49A01BD01EF01DF01F801AD
:10324000DBCF21153105F9F0281B390B243031056E
:1032500080F48A819B816115710521F0FB019383C4
:10326000828304C09093CE068093CD06FE013296F1
:1032700044C0FE01E20FF31F819391932250310964
:10328000398328833AC02091CB063091CC06232B7A
:1032900041F420910A0130910B013093CC06209328
:1032A000CB0620910801309109012115310541F427
:1032B0002DB73EB740910C0150910D01241B350BE9
:1032C000E091CB06F091CC06E217F307A0F42E1B99
:1032D0003F0B2817390778F0AC014E5F5F4F24177A
:1032E000350748F04E0F5F1F5093CC064093CB0636
:1032F0008193919302C0E0E0F0E0CF01DF91CF91A4
:103300001F910F910895CF93DF93009709F481C027
:10331000FC01329713821282A091CD06B091CE06A5
:10332000109781F420813181820F931F2091CB0669
:103330003091CC062817390751F5F093CC06E0936D
:10334000CB0667C0ED0120E030E0CE17DF0740F488
:103350004A815B819E0141155105F1F0EA01F5CFEB
:10336000D383C28340815181840F951FC817D90729
:1033700059F488819981840F951F029691838083E7
:103380008A819B81938382832115310529F4F093EF
:10339000CE06E093CD063DC0E901FB83EA83499167
:1033A0005991C40FD51FEC17FD0761F480819181FD
:1033B000840F951F0296E901998388838281938106
:1033C0009B838A83E0E0F0E012968D919C911397A5
:1033D000009719F0FD01DC01F7CF8D919C911197B9
:1033E0009D012E5F3F4F820F931F2091CB0630919E
:1033F000CC062817390769F4309729F41092CE06C5
:103400001092CD0602C013821282B093CC06A09314
:10341000CB06DF91CF910895A0E0B0E0E2E1FAE1C0
:103420000C94E017EC01009721F4CB010E94EB18FB
:10343000B4C0FC01E60FF71F9C0122503109E217CE
:10344000F30708F4A8C0D9010D911C911197061734
:103450001707B0F00530110508F49BC0C8010497A8
:103460008617970708F495C002501109061B170B21
:10347000019311936D937C93CF010E94831989C0AE
:103480005B01A01AB10A4C01800E911EA091CD06DD
:10349000B091CE06612C712CE12CF12C109709F41F
:1034A00046C08D919C911197A815B905B1F56C0195
:1034B00042E0C40ED11CCA14DB0478F14C018A1816
:1034C0009B08640142E0C40ED11C1296BC90129776
:1034D0001396AC91B5E0CB16D10440F0B282A38331
:1034E00091828082D9016D937C9309C00E5F1F4F3A
:1034F000800F911FF90191838083EB2DFA2FE11446
:10350000F10431F0D7011396FC93EE93129741C06A
:10351000F093CE06E093CD063CC06816790608F419
:103520003C017D0112960D90BC91A02DB7CF8091EA
:10353000CB069091CC0688169906E1F466167706BC
:10354000C8F48091080190910901009741F48DB76A
:103550009EB740910C0150910D01841B950BE8170B
:10356000F907C8F4F093CC06E093CB06F901718318
:1035700060830FC0CB010E94EB187C01009759F0CB
:10358000A801BE010E94D71ACE010E948319C7016B
:1035900004C0CE0102C080E090E0CDB7DEB7EEE01F
:1035A0000C94FC1781E090E0F8940C949A1DFB01B8
:1035B000DC0102C001900D9241505040D8F70895AF
:1035C000FB01DC0101900D920020E1F70895AEE0CF
:1035D000B0E0EDEEFAE10C94EA170D891E8986E061
:1035E0008C831A8309838FEF9FE79E838D83AE01BF
:1035F000475E5F4F6F89788DCE0101960E94091B4F
:10360000EF81F885E00FF11F10822E96E4E00C9414
:103610000618ABE0B0E0EFE0FBE10C94DC176C01C6
:103620007B018A01FC0117821682838181FFCCC154
:10363000CE0101963C01F6019381F70193FD85913E
:1036400093FF81917F01882309F4BAC1853239F44F
:1036500093FD859193FF81917F01853229F4B60115
:1036600090E00E94001DE7CF912C212C312CFFE12E
:10367000F315D8F08B3279F038F4803279F0833258
:10368000A1F4232D20611DC08D3261F0803369F4D7
:10369000232D216016C0832D8260382EE32DE46037
:1036A0003E2E2AC0F32DF8601DC037FC2DC020ED42
:1036B000280F2A3040F08E32B9F436FC81C1232D18
:1036C0002064322E19C036FE06C08AE0989E200D76
:1036D0001124922E11C0EAE02E9E200D1124222EDC
:1036E000F32DF0623F2E08C08C3621F4832D8068C4
:1036F000382E02C0883641F4F70193FD859193FF7F
:1037000081917F018111B3CF982F9F7D9554933084
:1037100028F40C5F1F4F9FE399830DC0833631F06F
:10372000833771F0833509F059C021C0F8018081D9
:1037300089830E5F1F4F88248394912C530113C0FB
:103740002801F2E04F0E511CF801A080B18036FE36
:1037500003C0692D70E002C06FEF7FEFC5010E94CA
:10376000F51C4C018201F32DFF773F2E16C0280176
:1037700022E0420E511CF801A080B18036FE03C049
:10378000692D70E002C06FEF7FEFC5010E94EA1C57
:103790004C01F32DF0683F2E820133FC1BC0822DBB
:1037A00090E088169906B0F4B60180E290E00E949D
:1037B000001D2A94F4CFF50137FC859137FE8191E5
:1037C0005F01B60190E00E94001D21102A9421E0C3
:1037D000821A91088114910471F7E8C0843611F0BF
:1037E000893641F5F80137FE07C060817181828119
:1037F00093810C5F1F4F08C060817181072E000C00
:10380000880B990B0E5F1F4FF32DFF763F2E97FF0E
:1038100009C090958095709561957F4F8F4F9F4F10
:10382000F0683F2E2AE030E0A3010E943C1D882E64
:10383000861845C0853731F4232D2F7EB22E2AE01D
:1038400030E025C0932D997FB92E8F36C1F018F442
:10385000883579F0B5C0803719F0883721F0B0C0CD
:10386000E92FE061BE2EB4FE0DC0FB2DF460BF2E2B
:1038700009C034FE0AC0292F2660B22E06C028E0F7
:1038800030E005C020E130E002C020E132E0F80184
:10389000B7FE07C060817181828193810C5F1F4FE9
:1038A00006C06081718180E090E00E5F1F4FA30130
:1038B0000E943C1D882E8618FB2DFF773F2E36FE7A
:1038C0000DC0232D2E7FA22E891458F434FE0BC078
:1038D00032FC09C0832D8E7EA82E05C0B82CA32CE7
:1038E00003C0B82C01C0B92CA4FE0FC0FE01E80D26
:1038F000F11D8081803321F49A2D997EA92E09C073
:10390000A2FE06C0B394B39404C08A2D867809F051
:10391000B394A3FC11C0A0FE06C0B21488F4280C16
:10392000922C9B180EC0B21460F4B60180E290E0B5
:103930000E94001DB394F7CFB21418F42B1802C0E4
:10394000982C212CA4FE10C0B60180E390E00E94C8
:10395000001DA2FE17C0A1FC03C088E790E002C0D2
:1039600088E590E0B6010CC08A2D867859F0A1FE5A
:1039700002C08BE201C080E2A7FC8DE2B60190E0BC
:103980000E94001D891438F4B60180E390E00E9483
:10399000001D9A94F7CF8A94F301E80DF11D808100
:1039A000B60190E00E94001D8110F5CF222009F49D
:1039B00042CEB60180E290E00E94001D2A94F6CF2C
:1039C000F6018681978102C08FEF9FEF2B96E2E18F
:1039D0000C94F817FC010590615070400110D8F765
:1039E000809590958E0F9F1F0895FC016150704047
:1039F00001900110D8F7809590958E0F9F1F089524
:103A00000F931F93CF93DF93FB01238121FD03C00D
:103A10008FEF9FEF2CC022FF16C046815781248173
:103A200035814217530744F4A081B1819D012F5F76
:103A30003F4F318320838C93268137812F5F3F4F07
:103A40003783268314C08B01EC01FB010084F185D0
:103A5000E02D0995892BE1F6D80116968D919C9160
:103A60001797019617969C938E931697CE01DF9128
:103A7000CF911F910F910895FA01AA27283051F193
:103A8000203181F1E8946F936E7F6E5F7F4F8F4F8F
:103A90009F4FAF4FB1E03ED0B4E03CD0670F781FEE
:103AA000891F9A1FA11D680F791F8A1F911DA11DD3
:103AB0006A0F711D811D911DA11D20D009F468940C
:103AC0003F912AE0269F11243019305D3193DEF6B4
:103AD000CF010895462F4770405D4193B3E00FD06A
:103AE000C9F7F6CF462F4F70405D4A3318F0495D55
:103AF00031FD4052419302D0A9F7EACFB4E0A69538
:103B00009795879577956795BA95C9F70097610559
:103B1000710508959B01AC010A2E069457954795AF
:103B200037952795BA95C9F7620F731F841F951FA4
:103B3000A01D089510E0C8E7D0E004C0FE010E9477
:0E3B4000E5182196C937D107C9F7F894FFCFD1
:103B4E0039023902010000000000CF068000050096
:103B5E0004040D0E131516191A1C232526292A2CBA
:103B6E003234727373692C25642B736E722C256438
:103B7E002B706C2C25642B00006761696120257504
:103B8E002F6D73672C25752B7265742C25752B7014
:103B9E0075622C25752B696E762C25752B637263D9
:103BAE002C25752B6379632C25752B0000585858DE
:103BBE0058585858313030000000003601A300CD5F
:103BCE00008301FE00DC00F00000000000BF0AA32D
:103BDE0000B7027902BF0ABF0ABF0A00000000BF89
:103BEE000AA300B70279020000000054072803B7A9
:103BFE000240071E030403EF0200000000570253A9
:103C0E00024F0274043D02750271026D0200000043
:103C1E0000210AD109870354093B02A6029E029B8A
:103C2E0005CC0547057A029802950292028F02880A
:103C3E00029B02850282027F027C020A09000000BA
:103C4E00002307A300B7023A02E502CD02BA0269C9
:103C5E006E6974206661696C6564007365742075A5
:103C6E007020746865206E6574776F726B200073B8
:103C7E00656E642062726F616463617374206D653A
:103C8E0073736167650047657420616E20696E63AA
:103C9E006F6D696E67206D6573736167650053653F
:103CAE006E64204A6F696E2041434B20746F20630F
:103CBE006C69656E743A000D0A00636C69656E740A
:103CCE0020616C72656164792073746F7265007324
:103CDE00657420757021210074686520636C6965B8
:103CEE006E7420636F6E6E656374206865726520F6
:103CFE00686173206C6561746600526571756573D9
:103D0E007420446174612066726F6D20636C696506
:103D1E006E743A200047657420696E636F6D696E2C
:103D2E0067206D65737361676520004352432B2BCB
:103D3E002B2B00534E5200435243204572726F722A
:103D4E0000436C69656E74206973206E6F72207209
:103D5E006573706F6E64732049443A00436C6965F5
:103D6E006E74206E756D62657200436C69656E745B
:103D7E00206E756D6265723A005265667265736883
:103D8E00206E6574776F726B206166746572207435
:103D9E00696D656F7574004E657720636C69656E2D
:103DAE00742069643A00436C69656E74206E756D9B
:103DBE00626572733A00FE0053656E644D717474E1
:103DCE00002F62696E2F617368002D630052657457
:063DDE0075726E3A000050
:00000001FF
